:100000000C949D000C94C5000C94C5000C94320611
:100010000C9432060C9432060C94C5000C94C50066
:100020000C94C5000C94C5000C94C5000C94C5003C
:100030000C94C5000C94C5000C94C5000C94C5002C
:100040000C945D110C94C5000C94B4040C948E04B3
:100050000C94C5000C94C5000C94C5000C94C5000C
:100060000C94E6040C94C500084AD73B3BCE016EC5
:1000700084BCBFFDC12F3D6C74319ABD56833DDAFF
:100080003D00C77F11BED9E4BB4C3E916BAAAABE0E
:10009000000000803F006932635772697465206612
:1000A00061696C65643A200069326352656164205D
:1000B00074696D656F75740069326352656164209F
:1000C0006661696C65643A20004572726F722072D5
:1000D000656164696E672073656E736F72000000FE
:1000E0000000250028002B0000000000230026004F
:1000F00029000404040404040404020202020202AB
:1001000003030303030301020408102040800102DB
:100110000408102001020408102000000000240040
:1001200027002A0000000008000201000003040765
:100130000000000000000000EA1C11241FBECFEFE9
:10014000D8E0DEBFCDBF12E0A0E0B1E0E0E3FAE42A
:1001500002C005900D92A035B107D9F727E0A0E5C0
:10016000B2E001C01D92AB33B207E1F710E0CDE978
:10017000D0E004C02197FE010E940423CC39D107AE
:10018000C9F70E94CE110C9416250C940000FC01B6
:10019000918D828D981761F0828DDF01A80FB11DBE
:1001A0005D968C91928D9F5F9F73928F90E00895E2
:1001B0008FEF9FEF0895FC01918D828D981731F09C
:1001C000828DE80FF11D858D90E008958FEF9FEFF0
:1001D0000895FC01918D228D892F90E0805C9F4FC6
:1001E000821B91098F739927089580ED93E00E94F7
:1001F000E90021E0892B09F420E0822F0895FC0119
:10020000848DDF01A80FB11DA35ABF4F2C91848D9F
:1002100090E001968F739927848FA689B7892C93D4
:10022000A089B1898C9180648C93938D848D98136F
:1002300006C00288F389E02D80818F7D8083089538
:10024000EF92FF920F931F93CF93DF93EC0181E026
:10025000888F9B8D8C8D981305C0E889F9898081E2
:1002600085FD24C0F62E0B8D10E00F5F1F4F0F731E
:100270001127E02E8C8DE8120CC00FB607FCFACFC8
:10028000E889F989808185FFF5CFCE010E94FF00C2
:10029000F1CF8B8DFE01E80FF11DE35AFF4FF08285
:1002A0000B8FEA89FB898081806207C0EE89FF8914
:1002B0006083E889F98980818064808381E090E0AF
:1002C000DF91CF911F910F91FF90EF900895CF9301
:1002D000DF93EC01888D8823C9F0EA89FB8980814E
:1002E00085FD05C0A889B9898C9186FD0FC00FB620
:1002F00007FCF5CF808185FFF2CFA889B9898C9161
:1003000085FFEDCFCE010E94FF00E7CFDF91CF91B7
:10031000089580E090E0892B29F00E94F50081117A
:100320000C940000089585ED8093BC008091BC0082
:1003300084FDFCCF1092AB0308954091B202262FAA
:1003400030E0240F311D21323105DCF42091AB0364
:100350002430C9F4FC0180E090E0861758F4309115
:10036000B2022191DC01A057BD4FA30FB11D2C9308
:100370000196F3CF8091B202680F6093B20280E0E1
:10038000089581E0089582E008950895E091D802EB
:100390008091D702E81730F4F0E0EB59FC4F8081F0
:1003A00090E008958FEF9FEF08959091D80280918B
:1003B000D702981750F4E92FF0E0EB59FC4F208159
:1003C00030E09F5F9093D80202C02FEF3FEFC9014A
:1003D00008958091D70290E02091D802821B910964
:1003E0000895CF92DF92EF92FF920F931F93CF93D6
:1003F000DF937C01262F972F8A018091AC038823FD
:1004000091F0C62FD72F6E01C40ED51ECC15DD0579
:1004100071F06991D701ED91FC910190F081E02D8F
:10042000C7010995F3CF642F822F0E949D01C80157
:10043000DF91CF911F910F91FF90EF90DF90CF90C0
:100440000895CF93DF931F92CDB7DEB769832091D4
:10045000AC032223D1F02091CF03203240F021E0E1
:1004600030E0FC013383228380E090E015C080916E
:10047000AD03E82FF0E0E255FC4F998190838F5F48
:100480008093AD038093CF0305C061E0CE01019658
:100490000E949D0181E090E00F90DF91CF9108953F
:1004A00020917B0430917C042817390771F49091D6
:1004B000790480917A04981741F0E0917904F0E092
:1004C000E05BFD4F808190E008958FEF9FEF0895EE
:1004D00008951F93CF93DF93DC015C962D913C919F
:1004E0005D972115310539F481E090E013969C93D6
:1004F0008E9312973DC05196ED91FC915297509674
:100500009C915097892F80951FB75E964C915E976E
:1005100041FB772770F941FD6095F894408177237E
:1005200011F0492B01C048234083E9012197F1F7DD
:1005300048E0508160FF02C0592B01C0582350830E
:10054000E9012197F1F76695415099F7772321F05A
:1005500090818923808303C08081982B90831FBF63
:100560005C968D919C915D970197F1F721E030E0C9
:10057000C901DF91CF911F91089520917B043091A3
:100580007C042817390771F480917A04209179044A
:1005900090E0805C9F4F821B910960E470E00E94B4
:1005A000E922089580E090E0089520917B04309145
:1005B0007C0428173907B9F49091790480917A0462
:1005C000981789F0E0917904F0E0E05BFD4F8081BD
:1005D0002091790430E02F5F3F4F2F733327209312
:1005E000790490E008958FEF9FEF08950E94012510
:1005F0000F931F93CF93DF93CDB7DEB728970FB636
:10060000F894DEBF0FBECDBF80917D0490917E0433
:100610009C01275F3F4F261737072CF00997681773
:1006200079070CF095C070937E0460937D04072ECB
:10063000000C880B990B0E94121F20E030E040E86C
:1006400053E40E94711F20E030E849E254E40E9424
:10065000952120E030E040E85FE30E94B6200E9450
:1006600007226F3F710519F014F06FEF70E08B01F6
:1006700077FF02C000E010E08FE791E00E94BB0D21
:10068000C8010E948A0D8091F9059091FA05813088
:10069000910589F18230910509F446C0892B09F052
:1006A00057C02FE030E0D8010E94FD222FEF30E04C
:1006B00040E050E00E942F20ABE5B3E0FE01319610
:1006C000BF018D91819383E0A336B807D1F7809164
:1006D0006203807F282B28878C818F7E8C8348E063
:1006E00050E080E00E947F0C62E370E080E090E0E8
:1006F0000E9417112DC019821A821B821C8286E06B
:1007000089832EE130E0D8010E94FD222FEF30E0F6
:1007100040E050E00E942F202C836AE070E0CE0180
:1007200001960E947D0B14C087EA89832FE130E097
:10073000D8010E94FD222FEF30E040E050E00E94FF
:100740002F202A83BE016F5F7F4F83E00E943D0B05
:1007500028960FB6F894DEBF0FBECDBFDF91CF91C4
:100760001F910F910895CF92DF92EF92FF920F9316
:100770001F93CF93DF9300D000D0CDB7DEB78C01AD
:100780007B01C0909D04D0909E0481E0C816D104E6
:1007900049F082E0C816D10409F44EC0CD2809F012
:1007A000B0C053C00115110531F580E991E00E94F8
:1007B000040E8091F9059091FA058130910549F078
:1007C0008230910589F0892B79F480E00E94BD0D7B
:1007D0000BC08DE089831A821B821C826AE070E064
:1007E000CE0101960E947D0B82E090E090939E04E2
:1007F00080939D0486C00330110509F082C0CB01AF
:100800008857910964E170E00E94D5228B01000FA6
:10081000111F0F5F1F4F8EE991E00E94BB0DC701B2
:100820000E948A0D1093A00400939F04C8010E94A7
:10083000EF0C0E94D30D65C00115110549F485EB3D
:1008400091E00E94040E0E94D30D81E090E0CECF93
:100850000130110559F482EC91E00E94BB0D20910A
:100860009F043091A004C901B6010DC002301105EA
:1008700021F58EEC91E00E94BB0D20919F043091F8
:10088000A004C901B8010E94E922019719F42F5F61
:100890003F4F02C0215031093093A00420939F04A0
:1008A00080919F049091A0040E948A0D80919F04E2
:1008B0009091A0040E94EF0C24C00330110509F5AB
:1008C0008AED91E00E94BB0DC7010E948A0DC7010D
:1008D0008857910964E170E00E94D5228B01000FD6
:1008E000111F0F5F1F4F84EE91E00E94BB0DC801E6
:1008F0000E948A0DC8010E94EF0C1093A00400937F
:100900009F040F900F900F900F90DF91CF911F9148
:100910000F91FF90EF90DF90CF9008951F920F926C
:100920000FB60F9211242F933F934F935F936F93C2
:100930007F938F939F93AF93BF93EF93FF9380ED3C
:1009400093E00E94FF00FF91EF91BF91AF919F91C3
:100950008F917F916F915F914F913F912F910F9068
:100960000FBE0F901F9018951F920F920FB60F9207
:1009700011242F938F939F93EF93FF93E091E003C4
:10098000F091E1038081E091E603F091E70382FDBD
:1009900012C090818091E9038F5F8F732091EA03E9
:1009A000821751F0E091E903F0E0E053FC4F958F9E
:1009B0008093E90301C08081FF91EF919F918F9116
:1009C0002F910F900FBE0F901F9018951F920F92AE
:1009D0000FB60F9211242F933F934F935F936F9312
:1009E0007F938F939F93AF93BF93EF93FF938091E8
:1009F000B900887F803609F49CC068F5883209F414
:100A00005BC090F4803109F454C038F4882309F4B1
:100A1000F6C0883009F44DC0F6C0883109F44CC0E6
:100A2000803209F45DC0EFC0803409F468C048F436
:100A3000803309F455C0883309F0E5C08093A903D9
:100A4000D8C0803509F44FC0883509F45DC08834BA
:100A500009F0D9C0D6C0883909F4C7C0A8F48837CE
:100A600009F467C038F4883609F463C0803709F4A4
:100A700060C0C9C0883809F4B8C0803909F45FC0C3
:100A8000803809F0C0C05BC0803B09F486C038F4F0
:100A9000803A09F466C0883A09F47FC0B4C0803C4B
:100AA00009F4A7C0883C09F4A4C0883B09F48AC0B3
:100AB000AAC08091860310C09091A8038091A703DB
:100AC000981770F5E091A80381E08E0F8093A8033A
:100AD000F0E0E957FC4F80818093BB0085EC86C035
:100AE0008093A9038EC0E091A80381E08E0F8093CC
:100AF000A8038091BB00F0E0E957FC4F8083909100
:100B0000A8038091A7036EC0E091A80381E08E0F37
:100B10008093A8038091BB00F0E0E957FC4F8083ED
:100B20008091AA0381116DC081E08093850384EADE
:100B300061C083E08093AB031092D602CFCF809147
:100B4000D602803208F051C0E091D60281E08E0FCB
:100B50008093D6028091BB00F0E0EA54FD4F808381
:100B6000BDCF85EC8093BC001092AB038091D60280
:100B7000803230F4E091D602F0E0EA54FD4F10826A
:100B80006091D60270E0E091B402F091B50286EB7C
:100B900092E009951092D60236C084E08093AB03B0
:100BA0001092B3021092B202E091B002F091B10241
:100BB00009958091B202811105C081E08093B20253
:100BC00010929002E091B30281E08E0F8093B30205
:100BD000F0E0E057FD4F80818093BB009091B3021D
:100BE0008091B202981708F479CF85E88093BC0011
:100BF0000AC085EC8093BC001092AB0304C0109235
:100C0000A9030E949301FF91EF91BF91AF919F9132
:100C10008F917F916F915F914F913F912F910F90A5
:100C20000FBE0F901F9018951092AB0381E0809338
:100C3000AA031092850361E082E10E946F1061E0D7
:100C400083E10E946F10E9EBF0E080818E7F80836A
:100C500080818D7F808388E48093B80085E48093D1
:100C6000BC0008951F920F920FB60F9211242F937C
:100C70003F934F935F936F937F938F939F93AF9324
:100C8000BF93EF93FF93E0917B04F0917C04309746
:100C900009F451C0968DA685B785858591FF04C05E
:100CA0009C91892329F447C09C91892309F043C072
:100CB000A389B4899C918589809589238C938689A1
:100CC00097890197F1F7608D718DA685B785558558
:100CD00038E020E0CB010197F1F7822F90E0959565
:100CE0008795282F4C91452309F02068315091F7C2
:100CF000868D81FD209580917A0490E001968F7316
:100D0000992730917904381749F0A0917A04B0E01E
:100D1000A05BBD4F2C9380937A0403C0868D8160C5
:100D2000868F828D938D0197F1F7A389B4899C9169
:100D30008589892B8C93FF91EF91BF91AF919F9102
:100D40008F917F916F915F914F913F912F910F9074
:100D50000FBE0F901F901895EF92FF920F931F9365
:100D6000CF93CFB7C078F8948C010C5B1F4FD8019C
:100D70002D913C912031310529F17C01B2E4EB0E3B
:100D8000F11CD701ED91FC91DF01AA0FBB1FAA0F47
:100D9000BB1FA80FB91F11967C936E9313965C939B
:100DA0004E931297CF01019660E170E00E94E92214
:100DB000F701918380832F5F3F4FD8012D933C93A0
:100DC00081E001C080E0CC2309F07894CF911F919D
:100DD0000F91FF90EF9008950F931F93CF93DF93A0
:100DE000EB010E9451110091830410918404012EA3
:100DF000000C220B330BDC01CB01801B910BA20BEF
:100E0000B30BC397A105B10570F180918104909156
:100E100082048130910541F08230910571F0892B77
:100E2000E1F481E090E004C02197B9F482E090E021
:100E3000909382048093810410C0219771F081E027
:100E400090E0909382048093810440E050E061E060
:100E500070E083E496E00E94AC060E94511170930A
:100E6000840460938304DF91CF911F910F910895C3
:100E70000F931F93CF93DF93EB010E9451110091C9
:100E8000890410918A04012E000C220B330BDC0123
:100E9000CB01801B910BA20BB30BC397A105B1052E
:100EA00070F180918704909188048130910541F020
:100EB0008230910571F0892BE1F481E090E004C06B
:100EC0002197B9F482E090E090938804809387049E
:100ED00010C0219771F081E090E090938804809396
:100EE000870440E050E062E070E083E496E00E9416
:100EF000AC060E94511170938A0460938904DF91BB
:100F0000CF911F910F9108950F931F93CF93DF936C
:100F1000EB010E94511100918F0410919004012E59
:100F2000000C220B330BDC01CB01801B910BA20BBD
:100F3000B30BC397A105B10570F180918D04909119
:100F40008E048130910541F08230910571F0892B3A
:100F5000E1F481E090E004C02197B9F482E090E0F0
:100F600090938E0480938D0410C0219771F081E0DE
:100F700090E090938E0480938D0440E050E060E018
:100F800070E083E496E00E94AC060E9451117093D9
:100F9000900460938F04DF91CF911F910F9108957A
:100FA000CF93DF938456910964E970E00E94E922AF
:100FB00084E1869FE001879FD00D1124C858DF4F40
:100FC0008091970490919804C817D90791F08CEEFE
:100FD00091E00E94BB0DCE010E948A0DAE0163E03C
:100FE00070E083E496E00E94AC06D0939804C0932E
:100FF0009704DF91CF9108950F931F93CF93DF93C1
:1010000020919304309194042130310539F022303D
:10101000310579F1232B09F0A9C024C00A9709F002
:10102000A5C08091990490919A049C012C5F3F4F38
:10103000261737072CF00497681779070CF096C02D
:1010400070939A0460939904653671053CF0CB0166
:10105000DF91CF911F910F910C94D0078AEF91E00F
:101060000E94040E82E090E0909394048093930495
:101070007DC08A309105E9F48091990490919A0499
:101080009C012C5F3F4F261737072CF004976817F9
:1010900079070CF06BC070939A04609399046536DD
:1010A00071050CF463C0CB010E94D00781E090E091
:1010B000DBCF069709F05AC0072E000C880B990B5E
:1010C0000E94121F20E030E040EF50E40E94B62062
:1010D00020E030E040E251E40E9495210E94072286
:1010E0006F5F7F4F84E1869FE001879FD00D1124C1
:1010F000C837D10510F4C8E7D0E0C53BD10510F0E2
:10110000C4EBD0E08091970490919804C817D90758
:1011100069F10E9451110091950410919604012EDD
:10112000000C220B330BDC01CB01801B910BA20BBB
:10113000B30B893B9B40A105B105C0F088E092E06C
:101140000E94BB0DCE010E948A0DAE0163E070E0EB
:1011500083E496E00E94AC06D0939804C093970471
:101160000E9451117093960460939504DF91CF9182
:101170001F910F910895EF92FF920F931F93CF93BA
:10118000DF937C018B01613208F060E280E10E9414
:101190003B0C1092D8028093D702E701CE018E1942
:1011A0009F098017910734F48DE694E00E94D501E1
:1011B0008993F4CFDF91CF911F910F91FF90EF9022
:1011C0000895CF92DF92EF92FF920F931F93CF93E8
:1011D000DF93D82FF42EE52E122F81E08093AC03FD
:1011E000D093CE031092AD031092CF038DE694E01E
:1011F0000E94210280E00E94DE0BC82F882389F024
:1012000088EB90E00E94A20E6C2F70E080E090E0EE
:101210004AE00E943E0D83E192E00E942C0D8C2F4B
:1012200044C0612F113208F060E28D2F0E943B0C08
:101230001092D8028093D7020F2DCF2DDE2D8C2F48
:10124000801B811728F59091D7028091D8029813BE
:1012500018C00E94F2106B017C010E94F210DC01A8
:10126000CB018C199D09AE09BF093091D70220919D
:10127000D802883E9340A105B10560F4321769F3A6
:1012800009C08DE694E00E94D50188832196D7CFCE
:1012900080E00BC03213F5CF88EA90E00E94A20EE6
:1012A00083E192E00E942C0D85E0DF91CF911F91A8
:1012B0000F91FF90EF90DF90CF900895EF92FF9203
:1012C0000F93CF93DF931F92CDB7DEB77A0191E0F2
:1012D0009093AC038093CE031092AD031092CF0392
:1012E0008DE694E029830E9421022981422F50E05B
:1012F000B7018DE694E00E94F101802F0E94DE0B81
:10130000082F882389F086E990E00E94A20E802FA2
:1013100090E0A0E0B0E04AE0BC01CD010E943E0DAB
:1013200083E192E00E942C0D802F0F90DF91CF91EE
:101330000F91FF90EF9008952F923F924F925F92FE
:101340006F927F928F929F92AF92BF92CF92DF92D5
:10135000EF92FF920F931F93CF93DF93CDB7DEB73A
:101360006C970FB6F894DEBF0FBECDBF1C014D8B3E
:101370005E8B6F8B788FC901B801D10150962D918A
:101380003D914D915C915397298B3A8B4B8B5C8BA4
:101390000E94B6209B01AC01F101648B758B868B9A
:1013A000978BC701B6010E94711FD1011C962D9128
:1013B0003D914D915C911F970E94B7206D877E876C
:1013C0008F87988BD10194962D913D914D915C9191
:1013D000979729833A834B835C83C701B6010E94A8
:1013E000711F4B015C01D1015C962D913D914D9196
:1013F0005C915F972D833E834F83588790962D9104
:101400003D914D915C91939729873A874B875C87F3
:101410002D813E814F8158850E94B62029853A85CD
:101420004B855C850E94B620F1012081318142818B
:1014300053810E94B7209B01AC01C701B6010E94F5
:10144000711FD10158962D913D914D915C915B9703
:101450000E94B7202B013C01A50194016D817E8182
:101460008F8198850E94B6206D837E838F839887B5
:10147000A501940169857A858B859C850E94B6209B
:1014800069877A878B879C87F10124813581468122
:101490005781C701B6010E94711F9B01AC01698190
:1014A0007A818B819C810E94B720698F7A8F8B8F84
:1014B0009C8FD10118962D913D914D915C911B9778
:1014C000C301B2010E94B7206B017C01F10164AB42
:1014D00075AB86AB97AB9B01AC01C301B2010E9417
:1014E00095214B015C01D10198966D937D938D936D
:1014F0009C939B97A701960169857A858B859C852E
:101500000E9495216B017C01F10164A775A786A754
:1015100097A72D853E854F8558896D897E898F894E
:10152000988D0E94B62069837A838B839C83D10136
:10153000D0966D937D938D939C93D3979B01AC0133
:10154000C501B4010E94711F9B01AC016D857E85B0
:101550008F8598890E94B7206D877E878F87988BAB
:10156000F101648775878687978729813A814B8146
:101570005C81C701B6010E94711F9B01AC016989A2
:101580007A898B899C890E94B720D10150966D93EE
:101590007D938D939C935397A3019201C501B40150
:1015A0000E94711F9B01AC01C301B2010E94B620D1
:1015B0002B013C01F101608F718F828F938F2D8100
:1015C0003E814F815885C501B4010E94711F9B0166
:1015D000AC016D817E818F8198850E94B6204B0180
:1015E0005C01D1015C966D937D938D939C935F9785
:1015F000A3019201C701B6010E94711F9B01AC01BA
:1016000069857A858B859C850E94B620F10160A34F
:1016100071A382A393A3A5019401C701B6010E94FF
:10162000711F9B01AC01698D7A8D8B8D9C8D0E9401
:10163000B620D10194966D937D938D939C9397974B
:101640006D857E858F8598896C960FB6F894DEBF80
:101650000FBECDBFDF91CF911F910F91FF90EF9003
:10166000DF90CF90BF90AF909F908F907F906F90C2
:101670005F904F903F902F900895EF92FF920F93BD
:101680001F93CF93DF93C82F7B018091FB0590912F
:10169000FC05DC01ED91FC910190F081E02D6EE7FD
:1016A00009958701D0E021978091FB059091FC0579
:1016B00098012E193F092C173D075CF4F801619140
:1016C0008F01DC01ED91FC910190F081E02D0995F5
:1016D000EBCFDC01ED91FC910190F081E02D6EE704
:1016E00009956AE070E080E090E0DF91CF911F9172
:1016F0000F91FF90EF900C941711EF92FF920F93C0
:101700001F93CF93DF937C018B018091FB05909118
:10171000FC05DC01ED91FC910190F081E02D6EE77C
:1017200009958091FB059091FC05DC01ED91FC9100
:101730000190F081E02D6FEF09958091FB0590916C
:10174000FC05DC01ED91FC910190F081E02D66E05B
:101750000995E701B4E0EB0EF11C8091FB05909137
:10176000FC056991DC01ED91FC910190F081E02D87
:101770000995CE15DF0589F78091FB059091FC0551
:10178000DC01ED91FC910190F081E02D6FEE099567
:101790001016110664F4B801110F880B990BDF9134
:1017A000CF911F910F91FF90EF900C941711DF9143
:1017B000CF911F910F91FF90EF900895382F2091B6
:1017C000CF039091CE03213208F049C08091AB0342
:1017D0008111FCCF42E04093AB033093AA033FEF6B
:1017E0003093A9031092A8032093A703AEEAB3E0B5
:1017F00047E853E0FA013E2F341B321718F43D91AD
:101800003193F9CF1092860320918603990F922B82
:101810009093860390918503913061F41092850333
:10182000909186039093BB009091BC0093FDF8CFFC
:1018300095EC01C095EE9093BC009091AB03923073
:10184000E1F39091A9039F3F79F08091A903803241
:1018500041F08091A903803331F084E005C081E03C
:1018600003C082E001C083E01092AD031092CF0369
:101870001092AC0308959091AB039111FCCF91E0CD
:101880009093AB039093AA032FEF2093A903109298
:10189000A803260F2093A7039093860390918603B5
:1018A000880F892B8093860380918503813061F4B2
:1018B00010928503809186038093BB008091BC00C9
:1018C00083FDF8CF85EC01C085EE8093BC0080914C
:1018D000AB038130E1F38091A803861710F4609187
:1018E000A803A7E8B3E025E633E0F9018E2F821BB9
:1018F000861718F48D918193F9CF862F0895EF9272
:10190000FF920F931F93CF93DF93EB01813051F43C
:10191000BA01CE01DF91CF911F910F91FF90EF900F
:101920000C94BB088A0181E08093AC0380E1809332
:10193000CE031092AD031092CF037B01C7018C1B25
:101940009D0B8017910744F4F70161917F018DE6AB
:1019500094E00E942102F2CF81E0DF91CF911F91AC
:101960000F91FF90EF900C94DE0B9C01FC01E05B6B
:10197000FD41CF016AE070E00E94D5222456394132
:101980002C34344010F48CE004C0E038FC4018F4EF
:1019900088E080935E0380915B03806480935B03A7
:1019A000CB01969587959695879580935D03809159
:1019B0005E038F7080616295660F660F607C682B96
:1019C00060935E0344E050E06BE573E080E00E94CA
:1019D0007F0C62E370E080E090E00C941711CF93ED
:1019E000DF9300D000D0CDB7DEB72091F90530915C
:1019F000FA052130310541F022303105C1F0232BA9
:101A000021F50E94B50C21C019821A821B821C820A
:101A100023E029836FEF70E00E94D5226B838C83D3
:101A20006AE070E0CE0101960E947D0B0EC020EAB4
:101A300029836FEF70E00E94D5226A838B83BE01F9
:101A40006F5F7F4F84E00E943D0B0F900F900F90CF
:101A50000F90DF91CF910895009769F0FC010190FC
:101A60000020E9F73197AF01481B590BBC0180ED0D
:101A700093E00C941B1080E090E008958F929F9269
:101A8000AF92BF920F931F93CF93DF93CDB7DEB783
:101A9000A1970FB6F894DEBF0FBECDBF19A242309A
:101AA00008F44AE08E010F5D1F4F842E912CA12C6B
:101AB000B12CA50194010E948520E62FB901CA012D
:101AC00001501109EA3014F4E05D01C0E95CD8016D
:101AD000EC93232B242B252B61F7C8010E942C0D9E
:101AE000A1960FB6F894DEBF0FBECDBFDF91CF91A8
:101AF0001F910F91BF90AF909F908F900895E091AC
:101B0000D003F091D1030190F081E02D682F80ED9A
:101B100093E00994CF92DF92EF92FF92CF93DF93FD
:101B20006C01990FEE08FF08F7FE12C08DE20E94CB
:101B30007F0DEC0166277727CB016C197D098E0993
:101B40009F094AE00E943E0D7C01EC0EFD1E06C07E
:101B50004AE0C701B6010E943E0D7C0183E192E09C
:101B60000E942C0D8E0D9F1DDF91CF91FF90EF9065
:101B7000DF90CF9008950C942C0D90915B038823F7
:101B800011F09F7B01C0906490935B0342E050E0B2
:101B90006BE573E080E00E947F0C62E370E080E020
:101BA00090E00C941711CF93DF9300D000D0CDB705
:101BB000DEB78091F9059091FA058130910549F0E1
:101BC0008230910591F0892BC1F481E00E94BD0D16
:101BD00014C08EE089831A821B821C826AE070E046
:101BE000CE0101960E947D0B08C083EA8983BE0165
:101BF0006F5F7F4F82E00E943D0B0F900F900F9020
:101C00000F90DF91CF910895CF93DF930E942C0D19
:101C1000EC0183E192E00E942C0D8C0F9D1FDF915F
:101C2000CF9108956115710509F140918906509190
:101C30008A0640325105D1F0E5E0E49F9001E59F2E
:101C4000300D112423503A4FF901E257FF4F7183B1
:101C50006083329691838083329681E080834F5FE8
:101C60005F4F50938A0640938906089580E0089557
:101C70008F929F92AF92BF92CF92DF92EF92FF929C
:101C8000C0901C05D0901D05E0901E05F0901F052A
:101C90008090180590901905A0901A05B0901B052A
:101CA000A7019601C501B4010E94362121EE3EE252
:101CB00045E652E40E94711F60932E0570932F0534
:101CC0008093300590933105A5019401C501B401BD
:101CD0000E94711F4B015C01A7019601C701B6016B
:101CE0000E94711F9B01AC01C501B4010E94B72085
:101CF0000E9477229B01AC018091140590911505FB
:101D0000A0911605B0911705BC01CD0190580E9415
:101D100095210E94662121EE3EE245E652E40E94B2
:101D2000711F60933205709333058093340590934F
:101D30003505FF90EF90DF90CF90BF90AF909F90D0
:101D40008F9008950F931F93CF93DF938C01C0E082
:101D5000D0E0F801EC0FFD1F6491662371F0E09173
:101D6000D003F091D1030190F081E02D80ED93E05C
:101D70000995892B11F02196ECCFCE01DF91CF91FF
:101D80001F910F9108952EE048E655E06BE3809196
:101D900013050E94E1088111F6CF6091680570E09B
:101DA000762F662780916905682B072E000C880B1B
:101DB000990B0E94121F6093140570931505809370
:101DC00016059093170560916A0570E0762F6627D7
:101DD00080916B05682B719561957109072E000C38
:101DE000880B990B0E94121F6093180570931905B8
:101DF00080931A0590931B0560916C0570E0762F17
:101E0000662780916D05682B072E000C880B990BB7
:101E10000E94121F60931C0570931D0580931E0580
:101E200090931F0580916E0590E0982F8827209150
:101E30006F05822B90932D0580932C056091700582
:101E400070E0762F66277195619571098091710513
:101E5000682B072E000C880B990B0E94121F6093B1
:101E600020057093210580932205909323056091AE
:101E7000720570E0762F662780917305682B072E18
:101E8000000C880B990B0E94121F6093240570931D
:101E9000250580932605909327056091740570E0D1
:101EA000762F662771956195710980917505682B6C
:101EB000072E000C880B990B0E94121F60932805B7
:101EC0007093290580932A0590932B050895AF926E
:101ED000BF92CF92DF92EF92FF920F931F93CF9317
:101EE000DF937C015B010BE816E0C12CD12CC0E034
:101EF000D0E08091890690918A06C816D906DCF454
:101F0000D801ED91FC911197309779F012968D914F
:101F10009C9113978E159F0541F414968C918823FC
:101F200021F02196B501C7010995BFEFCB1ADB0A55
:101F30000B5F1F4FDECF209779F4E0912B07F091D4
:101F40002C07309749F080912D07882329F0B5019F
:101F5000C7010995C1E0D0E0CE01DF91CF911F917B
:101F60000F91FF90EF90DF90CF90BF90AF900895CA
:101F70000F931F930E9451116093D8037093D9035C
:101F80008093DA039093DB03E091D003F091D103C7
:101F90000680F781E02D80ED93E0099597FF1FC043
:101FA0000E9451110091D8031091D9032091DA03B6
:101FB0003091DB03DC01CB01801B910BA20BB30B37
:101FC0000091D4031091D5032091D6033091D7030B
:101FD00080179107A207B307B8F28FEF9FEF1F9109
:101FE0000F910895833081F028F4813099F0823088
:101FF000A1F008958730A9F08830B9F08430D1F489
:10200000809180008F7D03C0809180008F778093C6
:102010008000089584B58F7702C084B58F7D84BD1C
:1020200008958091B0008F7703C08091B0008F7DBC
:102030008093B0000895CF92DF92EF92FF920F93BA
:102040001F93CF93DF936C017A018B01C0E0D0E046
:10205000CE15DF0589F0D8016D918D01D601ED9186
:10206000FC910190F081E02DC6010995892B11F4B6
:102070007E0102C02196ECCFC701DF91CF911F9165
:102080000F91FF90EF90DF90CF900895CF93DF9363
:10209000282F30E0F901EC5DFE4F8491F901EA5FF1
:1020A000FE4FD491F901EE50FF4FC491CC2391F033
:1020B00081110E94F20FEC2FF0E0EE0FFF1FE851AC
:1020C000FF4FA591B491EC91ED2381E090E021F4D4
:1020D00080E002C080E090E0DF91CF9108951F93EF
:1020E000CF93DF93282F30E0F901EC5DFE4F849110
:1020F000F901EA5FFE4FD491F901EE50FF4FC49110
:10210000CC23C9F0162F81110E94F20FEC2FF0E0C2
:10211000EE0FFF1FE252FF4FA591B4918FB7F894D5
:10212000111105C09C91ED2FE095E92302C0EC91BF
:10213000ED2BEC938FBFDF91CF911F910895CF933B
:10214000DF9390E0FC01EA5FFE4F2491FC01EE502A
:10215000FF4F8491882361F190E0880F991FFC0163
:10216000E65EFE4FC591D491FC01E252FF4FA5916E
:10217000B491611109C09FB7F8948881209582239A
:102180008883EC912E230BC0623061F49FB7F894E2
:102190003881822F809583238883EC912E2B2C937A
:1021A0009FBF06C08FB7F894E8812E2B28838FBF7E
:1021B000DF91CF9108958E3008F08E508770806443
:1021C00080937C0080917A00806480937A00809173
:1021D0007A0086FDFCCF809178002091790090E014
:1021E000922B08953FB7F89480913307909134076C
:1021F000A0913507B091360726B5A89B05C02F3FA3
:1022000019F00196A11DB11D3FBFBA2FA92F982F1C
:102210008827820F911DA11DB11DBC01CD0142E097
:10222000660F771F881F991F4A95D1F708958F92DF
:102230009F92AF92BF92CF92DF92EF92FF926B018B
:102240007C010E94F2104B015C01C114D104E10435
:10225000F104F1F00E94F210DC01CB018819990918
:10226000AA09BB09883E9340A105B10570F321E09E
:10227000C21AD108E108F10888EE880E83E0981EA2
:10228000A11CB11CC114D104E104F10419F7DDCF84
:10229000FF90EF90DF90CF90BF90AF909F908F9086
:1022A00008952FB7F89460912F07709130078091AF
:1022B0003107909132072FBF08951F920F920FB6EA
:1022C0000F9211242F933F938F939F93AF93BF93BC
:1022D00080912F0790913007A0913107B09132077C
:1022E00030912E0723E0230F2D3720F40196A11DF6
:1022F000B11D05C026E8230F0296A11DB11D209334
:102300002E0780932F0790933007A0933107B09347
:1023100032078091330790913407A0913507B0912F
:1023200036070196A11DB11D8093330790933407A2
:10233000A0933507B0933607BF91AF919F918F91CE
:102340003F912F910F900FBE0F901F9018950F93F4
:102350001F93CF93DF93EC0188819981009729F037
:102360002A813B812617370788F48B016F5F7F4FE7
:102370000E943724009761F0998388831B830A8326
:102380002C813D81232B11F4FC01108281E001C0DE
:1023900080E0DF91CF911F910F910895CF93DF934C
:1023A000CDB7DEB7C05CD1090FB6F894DEBF0FBE63
:1023B000CDBF789484B5826084BD84B5816084BDCE
:1023C00085B5826085BD85B5816085BD80916E00D3
:1023D000816080936E001092810080918100826004
:1023E0008093810080918100816080938100809141
:1023F00080008160809380008091B1008460809330
:10240000B1008091B00081608093B00080917A002B
:10241000846080937A0080917A00826080937A0051
:1024200080917A00816080937A0080917A00806840
:1024300080937A001092C100E091E003F091E103F3
:1024400082E08083E091DC03F091DD031082E09173
:10245000DE03F091DF0380E180831092E803E091D6
:10246000E403F091E50386E08083E091E203F091DC
:10247000E303808180618083E091E203F091E303D4
:10248000808188608083E091E203F091E3038081A2
:1024900080688083E091E203F091E30380818F7D87
:1024A00080831A8219821C821B821E821D8260E038
:1024B00070E08E010F5F1F4FC8010E94A711298194
:1024C0003A8181110DC02115310519F0C9010E9411
:1024D0009F231A8219821E821D821C821B822AC09F
:1024E0001E821D8265E172E0C9010E940F2522C093
:1024F000CF57DF4F8883C158D040CE57DF4F188267
:10250000C258D040ED80FE802FEFE21AF20AB701E8
:10251000C8010E94A711882369F029813A818D8121
:102520009E81BE016F577F4F820F931F0E940F2520
:10253000FE82ED820E94B80F97FFDACF89819A81DF
:102540000E949F238091F9059091FA05009779F0F8
:10255000019709F06DC089E089831A821B8282E0AD
:102560008C8368EC70E0C8010E947D0B61C0109202
:10257000D8021092D7021092AD031092CF030E949E
:1025800014068AE0D8011D928A95E9F710925B0340
:1025900082E080935C0342E050E06BE573E080E012
:1025A0000E947F0C62E370E080E090E00E941711CF
:1025B0006AE070E0C8010E94BB0862E370E080E05E
:1025C00090E00E941711898590E0982F88272A852E
:1025D000822B9093DA028093D902E0E0F1E0ABE540
:1025E000B3E081918D9321E0E830F207D1F742E02A
:1025F00050E060E071E080E00E947F0C68E572E0EE
:1026000080E090E00E94171148E450E060E071E043
:1026100080E00E947F0C62E370E080E090E00E9426
:10262000171181E00E94BD0D82E992E20E94B50C73
:1026300064E670E080E090E00E9417111092D802EA
:102640001092D7021092AD031092CF030E9414068D
:102650008CE08093B80087E080936805109269054C
:1026600010926A0510926B0500E024E048E655E000
:1026700069E1809113050E945E098111F5CF11E097
:1026800080911305CF57DF4F1883C158D04001E028
:1026900021E0AE014F575F4F6BE60E945E0981114A
:1026A000EFCF21E048E655E065E7809113050E94F1
:1026B000E1088111F6CF80916805813729F089EC16
:1026C00090E00E94A20EFFCF64E670E080E090E010
:1026D0000E9417110E94C30E0E94380E80912E0591
:1026E00090912F05A0913005B09131058093AF04F2
:1026F0009093B004A093B104B093B20480933605D4
:1027000090933705A0933805B093390580933E0523
:1027100090933F05A0934005B09341058091320509
:1027200090913305A0913405B09135058093E7046D
:102730009093E804A093E904B093EA0480933A05E7
:1027400090933B05A0933C05B0933D0580934205D3
:1027500090934305A0934405B09345050E94F21061
:1027600060935005709351058093520590935305E3
:102770000E94F2106093540570935505809356059E
:102780009093570560E082E00E949F1060E084E033
:102790000E949F1060E083E00E949F1083EB93E013
:1027A0009093A2048093A1048CEF97E090939C04F3
:1027B00080939B0484E897E0909392048093910423
:1027C00088E397E090938C0480938B048CEE96E0E2
:1027D000909386048093850488EF92E09093800420
:1027E00080937F0463EB73E080E090E00E94120E20
:1027F0006091A1047091A20481E090E00E94120E09
:102800006091A1047091A20482E090E00E94120EF7
:102810006091A1047091A20483E090E00E94120EE6
:1028200060919B0470919C0486E090E00E94120EDF
:1028300060919B0470919C048AE090E00E94120ECB
:10284000609191047091920487E090E00E94120ED2
:1028500060918B0470918C0488E090E00E94120ECD
:10286000609185047091860489E090E00E94120EC8
:1028700060917F04709180048BE090E00E94120EC2
:1028800083E192E00E942C0D86E192E00E94040E0A
:10289000E091A104F091A20460E070E080E090E09B
:1028A0000995E0919B04F0919C0460E070E080E069
:1028B00090E00995E0919104F091920460E070E05D
:1028C00080E090E00995E0918B04F0918C0460E049
:1028D00070E080E090E00995E0918504F091860435
:1028E00060E070E080E090E00995E0917F04F09175
:1028F000800460E070E080E090E00995AE014F5FF9
:102900005F4FCD57DF4F59834883C358D0408091E4
:10291000410690914206892B09F466C04FB7F8949E
:1029200020913D0630913E06F901EE0FFF1FEE0F9C
:10293000FF1FE350FA4F00811181E280F38068ECC1
:1029400070E071836083C901019660E170E00E94CC
:10295000E92290933E0680933D0680914106909136
:1029600042060197909342068093410647FD05C0B9
:10297000B701C8010E94670FCACF7894F9CFFFB69C
:10298000F89440918306509184069A01220F331FD8
:10299000220F331F23503A4FD901AA5BBF4F0D912D
:1029A0001C911197F901E85BFF4F2081318188EC80
:1029B00090E08D939C93CA01019660E170E00E94C3
:1029C000E9229093840680938306809187069091F4
:1029D000880601979093880680938706F7FC0BC0C2
:1029E000B901C8010E94670F8091870690918806FF
:1029F000892B19F0C4CF7894F3CF82E00E9446105F
:102A0000CD54DF4F99838883C35BD04083E00E941D
:102A10004610CB54DF4F99838883C55BD04084E058
:102A20000E944610C954DF4F99838883C75BD0400A
:102A30008EE00E94DB10C754DF4F99838883C95B07
:102A4000D0408FE00E94DB10C554DF4F998388830C
:102A5000CB5BD0400E94511100915805109159054F
:102A600020915A0530915B05DC01CB01801B910B55
:102A7000A20BB30B883C9105A105B10508F46EC209
:102A80000E945111609358057093590580935A051F
:102A900090935B050E94C30E0E94F21000915005B6
:102AA000109151052091520530915305601B710B17
:102AB000820B930B0E94101F20E034E244E759E49C
:102AC0000E949521CB57DF4F688379838A839B834C
:102AD000C558D0400E94F210609350057093510584
:102AE00080935205909353050E94380E20E030E009
:102AF00043E053E460912005709121058091220507
:102B0000909123050E9495212B013C0120E030E0AB
:102B100043E053E4609124057091250580912605DA
:102B2000909127050E949521C757DF4F68837983CD
:102B30008A839B83C958D04080902E0590902F05A2
:102B4000A0903005B090310520E030E044EB52EC2D
:102B5000C501B4010E940B1F87FF10C020E030E0C8
:102B600044EB52E460914605709147058091480519
:102B7000909149050E9464221816D4F020E030E0BC
:102B800044EB52E4C501B4010E94642218168CF58E
:102B900020E030E044EB52EC60914605709147052F
:102BA00080914805909149050E940B1F87FF21C025
:102BB0008092AF049092B004A092B104B092B2049B
:102BC00080923E0590923F05A0924005B09241054B
:102BD0008092460590924705A0924805B09249051B
:102BE0008092360590923705A0923805B09239054B
:102BF00018C0CB57DF4FC880D980EA80FB80C5580A
:102C0000D04093018201B501A40183EA94E00E94BF
:102C10009C096093460570934705809348059093FF
:102C2000490560914605709147058091480590914E
:102C300049050E9407229B0177FF04C02227332702
:102C4000261B370B2B3531058CF0C757DF4F2881FA
:102C500039814A815B81C958D0405058C757DF4FEE
:102C6000288339834A835B83C958D0404091320519
:102C7000509133056091340570913505CB57DF4F86
:102C8000C880D980EA80FB80C558D040C757DF4F45
:102C9000088119812A813B81C958D0408BED94E08D
:102CA0000E949C09C357DF4F688379838A839B8383
:102CB000CD58D04060934A0570934B0580934C05E6
:102CC00090934D05CB57DF4F288139814A815B8135
:102CD000C558D040C301B2010E94711F2B013C01B5
:102CE00020913605309137054091380550913905CE
:102CF0000E94B720CF56DF4F688379838A839B83F6
:102D0000C159D040609336057093370580933805DC
:102D100090933905CB57DF4F288139814A815B81F8
:102D2000C558D040C757DF4F688179818A819B8120
:102D3000C958D0400E94711F4B015C0120913A0597
:102D400030913B0540913C0550913D050E94B720D4
:102D50006B017C0160933A0570933B0580933C05C1
:102D600090933D0520913E0530913F0540914005EF
:102D700050914105C301B2010E94B7202BE734E115
:102D80004EE65FE30E94711F2B013C0129E23CE506
:102D90004FE85DE360912E0570912F05809130051D
:102DA000909131050E94711F9B01AC01C301B201DA
:102DB0000E94B72060933E0570933F0580934005C5
:102DC000909341052091420530914305409144057F
:102DD00050914505C501B4010E94B7202BE734E1AD
:102DE0004EE65FE30E94711F4B015C0129E23CE566
:102DF0004FE85DE3609132057091330580913405B1
:102E0000909135050E94711F9B01AC01C501B40171
:102E10000E94B72060934205709343058093440558
:102E20009093450520E030E044E353ECCF56DF4F6C
:102E3000688179818A819B81C159D0400E940B1F92
:102E400087FD10C020E030E044E353E4CF56DF4F6D
:102E5000688179818A819B81C159D0400E94642216
:102E6000181684F48091460590914705A091480575
:102E7000B09149058093360590933705A0933805A6
:102E8000B093390520E030E044E353ECC701B601CC
:102E90000E940B1F87FD0AC020E030E044E353E4AA
:102EA000C701B6010E946422181684F4C357DF4F8D
:102EB000488159816A817B81CD58D04040933A0541
:102EC00050933B0560933C0570933D050091F705D9
:102ED0001091F805C801880F991F880F991FBC0130
:102EE00069587A4F7B01C357DF4F288139814A8166
:102EF0005B81CD58D0406091460570914705809127
:102F00004805909149050E94B720D7016D937D93A4
:102F10008D939C9313970F5F1F4F0F711127109381
:102F2000F8050093F7058091600590916105A091E7
:102F30006205B09163050196A11DB11D80936005E6
:102F400090936105A0936205B09363058F709927F4
:102F5000AA27BB27892B8A2B8B2B29F000914E05A2
:102F600010914F05F0C40E94511160935C0570935D
:102F70005D0580935E0590935F050E94F2104B0102
:102F80005C0160916005709161058091640590918C
:102F90006505681B790B072E000C880B990B0E94A6
:102FA000121F6B017C018091540590915505A091F1
:102FB0005605B0915705A5019401281B390B4A0B02
:102FC0005B0BCA01B9010E94101F20E034E244E704
:102FD00059E40E9495219B01AC01C701B6010E94F2
:102FE0009521C354DF4F688379838A839B83CD5BAC
:102FF000D0400E94F2106093540570935505809361
:103000005605909357058091600590916105A091B8
:103010006205B09163058093640590936505A09364
:103020006605B0936705E0E8FE2EABEDB2E0EF2D4C
:103030001D92EA95E9F70091F7051091F80540E235
:1030400050E0401B510B440F551F440F551FB80152
:10305000660F771F660F771F69587A4F8BED92E0E6
:103060000E9406252CEF2003C001219F900D112402
:10307000A801440F551F440F551F67E775E0855A97
:103080009C4F0E940625CD57DF4FA881B981C358B8
:10309000D0401D92FA94E9F7EBEDF2E0CB57DF4F09
:1030A000F983E883C558D0409E012F5F3F4FCC5530
:1030B000DF4F39832883C45AD040F9010BED12E069
:1030C00040E050E080E090E020E130E0821793079C
:1030D00028F0821B930B36952795F8CF820F931F0C
:1030E0004F5F5F4F4F31510509F441C048175907F1
:1030F000D0F59C01220F331F220F331FB9016552F7
:103100007D4FD8011496CD90DD90ED90FC901797EF
:10311000DB018D909D90AD90BC90D80114968D925E
:103120009D92AD92BC921797DB01CD92DD92ED920C
:10313000FC92139761E070E06C0F7D1F260F371F24
:10314000C480D580E680F780D9018D909D90AD90A8
:10315000BC90139784829582A682B782CD92DD922D
:10316000ED92FC9213970C5F1F4F3496ADCFC05673
:10317000DF4F188219821A821B82C05AD040412C1C
:10318000512C50E8652E5FEB752EC356DF4F188229
:10319000CD59D04081E0B82FBB0FC855DF4FB88361
:1031A000C85AD040EB2FF0E0C755DF4FF983E883D2
:1031B000C95AD040EE0FFF1FEE0FFF1FC555DF4F5E
:1031C000F983E883CB5AD040282F30E0C355DF4F36
:1031D00039832883CD5AD040220F331F220F331F4B
:1031E000CF54DF4F39832883C15BD040CB56DF4FAC
:1031F00019821882C559D040CF56DF4F18821982E4
:103200001A821B82C159D040212C312C00E81FE3C7
:10321000C956DF4F19821882C759D040C956DF4FAF
:1032200028813981C759D040C355DF4F4881598122
:10323000CD5AD0402417350708F0ACC1CB56DF4F2C
:1032400068817981C559D04065527D4FC357DF4FA2
:1032500079836883CD58D04081E090E08C0F9D1F2A
:10326000CB56DF4FA881B981C559D0408A0F9B1F2B
:10327000C757DF4F99838883C958D040C256DF4F64
:1032800039832883CE59D040C256DF4F8881998137
:10329000CE59D040809708F018C1C357DF4F4881FE
:1032A0005981CD58D040CF54DF4F68817981C15BBF
:1032B000D040460F571FCA55DF4F59834883C65A1F
:1032C000D040DA018D909D90AD90BC90C757DF4FF4
:1032D000E881F981C958D040E60FF71FC155DF4F8B
:1032E000F983E883CF5AD0402081318142815381D4
:1032F000C756DF4F288339834A835B83C959D0403F
:10330000A5019401B101C8010E94711F6B017C01EC
:10331000C756DF4F288139814A815B81C959D04026
:10332000CF56DF4F688179818A819B81C159D04016
:103330000E94711F9B01AC01C701B6010E94B6201B
:103340006B017C01C756DF4F288139814A815B813F
:10335000C959D040B101C8010E94711FC756DF4F43
:10336000688379838A839B83C959D040A5019401DE
:10337000CF56DF4F688179818A819B81C159D040C6
:103380000E94711F9B01AC01C756DF4F6881798194
:103390008A819B81C959D0400E94B7204B015C01B2
:1033A000A7019601C357DF4FE881F981CD58D0407E
:1033B00060817181828193810E94B620CA55DF4F5E
:1033C000A881B981C65AD0406D937D938D939C930B
:1033D0001397A5019401C757DF4FE881F981C958B8
:1033E000D04060817181828193810E94B620C15555
:1033F000DF4FA881B981CF5AD0406D937D938D93D3
:103400009C931397A7019601C357DF4FE881F98179
:10341000CD58D04060817181828193810E94B72014
:10342000C357DF4FA881B981CD58D0406D937D93AC
:103430008D939C931397A5019401C757DF4FE881A3
:10344000F981C958D04060817181828193810E9445
:10345000B720C757DF4FA881B981C958D0406D93B5
:103460007D938D939C931397C256DF4FE881F9812A
:10347000CE59D040C755DF4F28813981C95AD04035
:10348000E20FF31FC256DF4FF983E883CE59D040D5
:10349000C357DF4F48815981CD58D040C555DF4FC4
:1034A00068817981CB5AD040460F571FC357DF4FF1
:1034B00059834883CD58D040A60FB71FC757DF4F59
:1034C000B983A883C958D040DFCEA3019201B101CE
:1034D000C8010E94711F6B017C01C056DF4F28811B
:1034E00039814A815B81C05AD040CF56DF4F688115
:1034F00079818A819B81C159D0400E94711F9B01B3
:10350000AC01C701B6010E94B6206B017C01A3018A
:103510009201CF56DF4F688179818A819B81C159A1
:10352000D0400E94711F4B015C01C056DF4F2881C3
:1035300039814A815B81C05AD040B101C8010E94E3
:10354000711FA50194010E94B720CF56DF4F6883F9
:1035500079838A839B83C159D040C956DF4FA881A4
:10356000B981C759D0401196C956DF4FB983A88396
:10357000C759D040CB56DF4FE881F981C559D040BB
:103580003496CB56DF4FF983E883C559D0401601F6
:10359000870144CEA301920160E070E080E89FE3E0
:1035A0000E94B62020E030E040E05FE30E94711FFF
:1035B0000E9477229B01AC015058C056DF4F2883F0
:1035C00039834A835B83C05AD04020E030E040E832
:1035D0005FE3C301B2010E94B72020E030E040E089
:1035E0005FE30E94711F0E9477222B013C01C356AA
:1035F000DF4F3881CD59D0403F5FC356DF4F38830E
:10360000CD59D040C855DF4F8881C85AD040353099
:1036100009F0C1CD0BED12E0B3E00B351B0781F1D2
:10362000D8016D917D918D919C91CC55DF4FE881B2
:10363000F981C45AD040C190D190E190F190CC551D
:10364000DF4FF983E883C45AD0409B01AC010E944C
:10365000711F4B015C01A7019601C701B6010E94D1
:10366000711F9B01AC01C501B4010E94B7200E94EB
:103670007722D8016D937D938D939D938D01CCCF4F
:10368000A12CB12C912C812C712C612C01E010E02B
:10369000CB57DF4FE881F981C558D04061917191D6
:1036A00081919191CB57DF4FF983E883C558D04082
:1036B000C080D180E280F3809601A7010E940B1F99
:1036C00087FF21C0CB57DF4FA881B981C558D040B3
:1036D00014962D913D914D915C911797B601C701BC
:1036E0000E94642218167CF4292D382D472D562D62
:1036F000B601C7010E94642218162CF458019C2CB4
:103700008D2C7E2C6F2C0F5F1F4F0F30110509F091
:10371000BFCF85010150104C000F111F000F111F6A
:10372000F801E552FD4FC080D180E280F380F801BE
:10373000ED51FD4F4080518062807380B50180E083
:1037400090E00E94101F4B015C01A3019201C70190
:10375000B6010E94B620CB57DF4F688379838A83F6
:103760009B83C558D040F801E152FD4F60817181C3
:10377000828193819B01AC010E94B7209B01AC0127
:10378000C701B6010E94B620A30192010E94B72092
:103790009B01AC01CB57DF4F688179818A819B8186
:1037A000C558D0400E94952120E030E040E05FE322
:1037B0000E94711F9B01AC01C501B4010E94B7209A
:1037C000C354DF4F288139814A815B81CD5BD04072
:1037D0000E94711F20E030E048EF51E40E949521E3
:1037E00020E030E040E752E40E94711F6B017C0151
:1037F00087E392E00E94BB0DA7019601C701B601C5
:103800000E94BB22882319F084E492E01AC046018A
:103810005701E894B7F82FEF3FEF4FE75FE7C50197
:10382000B4010E94BB2281110FC02FEF3FEF4FE781
:103830005FE7C501B4010E940B1F18162CF488E441
:1038400092E00E942C0D72C02FEF3FEF4FE75FE434
:10385000C701B6010E94642218161CF48CE492E0A1
:10386000F0CF2FEF3FEF4FE75FECC701B6010E94AB
:103870000B1F87FDF3CF20E030E0A901C701B6019F
:103880000E940B1F87FF07C08DE20E947F0DC701BA
:10389000B601905802C0C701B6012AE037ED43EAED
:1038A0005BE30E94B7202B013C010E940E224B01DA
:1038B0005C010E94101F9B01AC01C301B2010E9478
:1038C000B6202B013C014AE0C501B4010E943E0D27
:1038D0008EE20E947F0D20E030E040E251E4C3011F
:1038E000B2010E94711F4B015C010E940E222B014C
:1038F000612C712C4AE0C301B2010E943E0DC3014C
:10390000B2010E94101F9B01AC01C501B4010E94CD
:10391000B62020E030E040E251E40E94711F0E9496
:103920000E2280E090E04AE00E943E0D83E192E0AA
:103930000E942C0DC701B6010E9407228B017093D3
:103940004F0560934E05CD54DF4F48815981C35BCD
:10395000D04067E070E083E496E00E94AC06CB5470
:10396000DF4F48815981C55BD04068E070E083E457
:1039700096E00E94AC06C954DF4F48815981C75B6D
:10398000D04069E070E083E496E00E94AC06C75442
:10399000DF4F48815981C95BD0406AE070E083E421
:1039A00096E00E94AC06C554DF4F48815981CB5B3D
:1039B000D0406BE070E083E496E00E94AC06A80182
:1039C00066E070E083E496E00E94AC060E94890104
:1039D0000C9487140F931F93CF93DF931092D3030C
:1039E0001092D20388EE93E0A0E0B0E08093D4037D
:1039F0009093D503A093D603B093D70323E531E08A
:103A00003093D1032093D00325EC30E03093DD03D5
:103A10002093DC0324EC30E03093DF032093DE03BB
:103A200020EC30E03093E1032093E00321EC30E020
:103A30003093E3032093E20322EC30E03093E5037C
:103A40002093E40326EC30E03093E7032093E60371
:103A50001092E9031092EA031092EB031092EC0328
:103A60001092700410926F0480937104909372040A
:103A7000A0937304B093740483E691E090936E0472
:103A800080936D0410923E0610923D0610924006FF
:103A900010923F061092420610924106EDEFF5E0BB
:103AA00088EC90E09183808313821282349626E022
:103AB000ED33F207B9F71092840610928306109244
:103AC0008606109285061092880610928706E3E417
:103AD000F6E088EC90E09183808313821282349622
:103AE00026E0E338F207B9F710928A0610928906A9
:103AF00010922C0710922B0781E090E09093FA052A
:103B00008093F9058FE190E00E940A23EC011B826B
:103B10001A8288EE93E0A0E0B0E08C839D83AE83B0
:103B2000BF8383E791E0998388831F8A1E8A198E59
:103B3000188E1B8E1A8E1D8E1C8E6E8D6E7F6D7F65
:103B40006E8F6695617081E0682787E00E946F1034
:103B500061E087E00E949F10EDE0F1E0E491E88BE6
:103B6000E9EFF0E0E491F0E0EE0FFF1FE252FF4FCB
:103B7000859194919A8B898B60E086E00E949F10DA
:103B80008E8D81FD04C061E086E00E946F1086E0AA
:103B90008C87ECE0F1E0E491ED87E8EFF0E0E49170
:103BA000F0E0EE0FFF1FE851FF4F859194919F8742
:103BB0008E87D093FC05C093FB058DE991E09D8F26
:103BC0008C8F2DEB30E03F8B2E8B2BE931E0398F42
:103BD000288F2CE231E03B8F2A8F209168002460EF
:103BE000209368002DE630E03C8B2B8B20E42D8B5E
:103BF0000197F1F78A8D9B8D892B09F1E0917B0468
:103C0000F0917C04EC17FD07D1F0309739F0A389CF
:103C1000B4899C918589809589238C938E8D8E7F24
:103C20008E8F10927A0410927904D0937C04C09302
:103C30007B04EB89FC8990818D89892B80830FE639
:103C400012E123E83AE30093A3041093A404209321
:103C5000A5043093A60446EA5BE964E47BE3409361
:103C6000A7045093A8046093A9047093AA048FE852
:103C700092ECA5EFBCE38093AB049093AC04A093CB
:103C8000AD04B093AE041092AF041092B004109241
:103C9000B1041092B2041092B3041092B4041092C2
:103CA000B5041092B6041092BB041092BC0410929A
:103CB000BD041092BE041092BF041092C004109272
:103CC000C1041092C2041092C3041092C404109252
:103CD000C5041092C6041092C7041092C804109232
:103CE000C9041092CA040093DB041093DC042093EF
:103CF000DD043093DE044093DF045093E0046093CE
:103D0000E1047093E2048093E3049093E404A093AD
:103D1000E504B093E6041092E7041092E8041092D0
:103D2000E9041092EA041092EB041092EC04109251
:103D3000ED041092EE041092F3041092F404109229
:103D4000F5041092F6041092F7041092F804109201
:103D5000F9041092FA041092FB041092FC041092E1
:103D6000FD041092FE041092FF04109200051092C0
:103D700001051092020588E68093130510926005F4
:103D8000109261051092620510926305109264050D
:103D90001092650510926605109267051092F8055D
:103DA0001092F70510929E0410929D041092A004A8
:103DB00010929F041092940410929304109296040F
:103DC00010929504109298041092970410929A04FD
:103DD0001092990410928E0410928D041092900407
:103DE00010928F04109288041092870410928A0413
:103DF000109289041092820410928104109284041B
:103E00001092830410927E0410927D04DF91CF9172
:103E10001F910F9108950E944D1F08F481E00895AD
:103E2000E89409C097FB3EF4909580957095619554
:103E30007F4F8F4F9F4F9923A9F0F92F96E9BB270A
:103E40009395F695879577956795B795F111F8CF86
:103E5000FAF4BB0F11F460FF1BC06F5F7F4F8F4FF1
:103E60009F4F16C0882311F096E911C0772321F0E7
:103E70009EE8872F762F05C0662371F096E8862F7F
:103E800070E060E02AF09A95660F771F881FDAF7D6
:103E9000880F9695879597F90895990F0008550F03
:103EA000AA0BE0E8FEEF16161706E807F907C0F0C0
:103EB00012161306E407F50798F0621B730B840BC8
:103EC000950B39F40A2661F0232B242B252B21F4A2
:103ED00008950A2609F4A140A6958FEF811D811D42
:103EE00008950E94841F0C94F51F0E94E71F38F06C
:103EF0000E94EE1F20F0952311F00C94DE1F0C940D
:103F0000E41F11240C9429200E94062070F3959F31
:103F1000C1F3950F50E0551F629FF001729FBB27C0
:103F2000F00DB11D639FAA27F00DB11DAA1F649F5C
:103F30006627B00DA11D661F829F2227B00DA11D0F
:103F4000621F739FB00DA11D621F839FA00D611D95
:103F5000221F749F3327A00D611D231F849F600DB6
:103F6000211D822F762F6A2F11249F5750409AF0DF
:103F7000F1F088234AF0EE0FFF1FBB1F661F771F6B
:103F8000881F91505040A9F79E3F510580F00C9436
:103F9000DE1F0C9429205F3FE4F3983ED4F386950E
:103FA00077956795B795F795E7959F5FC1F7FE2BD6
:103FB000880F911D9695879597F9089597F99F67B2
:103FC00080E870E060E008959FEF80EC08950024A1
:103FD0000A941616170618060906089500240A946E
:103FE00012161306140605060895092E0394000CF4
:103FF00011F4882352F0BB0F40F4BF2B11F460FF83
:1040000004C06F5F7F4F8F4F9F4F089557FD9058AB
:10401000440F551F59F05F3F71F04795880F97FB8C
:10402000991F61F09F3F79F0879508951216130646
:104030001406551FF2CF4695F1DF08C01616170675
:104040001806991FF1CF86957105610508940895AA
:10405000E894BB2766277727CB0197F90895052EAB
:1040600097FB1EF400940E94462057FD07D00E9443
:10407000852007FC03D04EF40C94462050954095C3
:10408000309521953F4F4F4F5F4F08959095809504
:10409000709561957F4F8F4F9F4F08952F923F925C
:1040A0004F925F926F927F928F929F92AF92BF9248
:1040B000CF92DF92EF92FF920F931F93CF93DF93F4
:1040C000CDB7DEB7CA1BDB0B0FB6F894DEBF0FBE51
:1040D000CDBF09942A88398848885F846E847D849E
:1040E0008C849B84AA84B984C884DF80EE80FD80A0
:1040F0000C811B81AA81B981CE0FD11D0FB6F89416
:10410000DEBF0FBECDBFED010895A1E21A2EAA1B9E
:10411000BB1BFD010DC0AA1FBB1FEE1FFF1FA21777
:10412000B307E407F50720F0A21BB30BE40BF50B74
:10413000661F771F881F991F1A9469F760957095FD
:10414000809590959B01AC01BD01CF010895A29F80
:10415000B001B39FC001A39F700D811D1124911D5B
:10416000B29F700D811D1124911D08955058BB27D9
:10417000AA270E94CE200C94F51F0E94E71F38F05A
:104180000E94EE1F20F039F49F3F19F426F40C949E
:10419000E41F0EF4E095E7FB0C94DE1FE92F0E946C
:1041A000062058F3BA17620773078407950720F0B3
:1041B00079F4A6F50C9428200EF4E0950B2EBA2F76
:1041C000A02D0B01B90190010C01CA01A00111241D
:1041D000FF27591B99F0593F50F4503E68F11A16C9
:1041E000F040A22F232F342F4427585FF3CF46955A
:1041F00037952795A795F0405395C9F77EF41F167C
:10420000BA0B620B730B840BBAF09150A1F0FF0F45
:10421000BB1F661F771F881FC2F70EC0BA0F621F31
:10422000731F841F48F4879577956795B795F79521
:104230009E3F08F0B0CF9395880F08F09927EE0FB6
:104240009795879508950E94E71F60F080E891E0B8
:1042500009F49EEF0E94EE1F28F040E851E071F44F
:104260005EEF0CC00C94E41F0C942820E92FE0783A
:104270000E94062040F3092E052AB1F326173707BE
:104280004807590738F00E2E07F8E02569F0E025B9
:10429000E0640AC0EF6307F8009407FADB01B90194
:1042A0009D01DC01CA01AD01EF930E94AC210E9487
:1042B000F51F0E9466215F91552339F02BED3FE0F9
:1042C00049E450FD49EC0C94B7200895DF93DD27B5
:1042D000B92FBF7740E85FE31616170648075B075C
:1042E00018F4D92F0E9469229F938F937F936F9325
:1042F0000E94B722E8E6F0E00E943D220E94F51FEE
:104300002F913F914F915F910E94841FDD2351F0C7
:104310009058A2EA2AED3FE049EC5FE3D0785D27B0
:104320000E94CE20DF910C94F51F0E94A9210C94CD
:10433000F51F0E94EE1F58F00E94E71F40F029F47D
:104340005F3F29F00C94DE1F51110C9429200C942E
:10435000E41F0E94062068F39923B1F3552391F3DB
:10436000951B550BBB27AA2762177307840738F0E4
:104370009F5F5F4F220F331F441FAA1FA9F335D041
:104380000E2E3AF0E0E832D091505040E695001CF5
:10439000CAF72BD0FE2F29D0660F771F881FBB1FAF
:1043A000261737074807AB07B0E809F0BB0B802D8D
:1043B000BF01FF2793585F4F3AF09E3F510578F0B9
:1043C0000C94DE1F0C9429205F3FE4F3983ED4F355
:1043D000869577956795B795F7959F5FC9F7880F8D
:1043E000911D9695879597F90895E1E0660F771FDF
:1043F000881FBB1F621773078407BA0720F0621B70
:10440000730B840BBA0BEE1F88F7E09508950E949A
:104410000E226894B1110C94292008950E940E2058
:1044200088F09F5798F0B92F9927B751B0F0E1F075
:10443000660F771F881F991F1AF0BA95C9F714C025
:10444000B13091F00E942820B1E008950C9428200A
:10445000672F782F8827B85F39F0B93FCCF386955E
:1044600077956795B395D9F73EF4909580957095BB
:1044700061957F4F8F4F9F4F0895DF93CF931F9389
:104480000F93FF92EF92DF927B018C01689406C03C
:10449000DA2EEF010E94841FFE01E894A591259178
:1044A000359145915591A6F3EF010E94CE20FE0172
:1044B0009701A801DA9469F7DF90EF90FF900F91D0
:1044C0001F91CF91DF9108950E944D1F08F48FEF47
:1044D00008959B01AC0160E070E080E89FE30C94DC
:1044E000952119F416F40C94E41F0C94C0220E9438
:1044F0000E20B8F39923C9F3B6F39F57550B87FFE6
:104500000E94CE220024A0E640EA900180585695F1
:10451000979528F4805C660F771F881F20F0261778
:104520003707480730F4621B730B840B20293129AD
:104530004A2BA69517940794202531254A2758F72A
:10454000660F771F881F20F026173707480730F4BB
:10455000620B730B840B200D311D411DA09581F75B
:10456000B901842F9158880F9695879508959B01DE
:10457000AC010C94711F0E944D1F880B990B08957C
:104580009F3F31F0915020F4879577956795B795C7
:10459000880F911D9695879597F9089591505040F1
:1045A000660F771F881FD2F70895AA1BBB1B51E126
:1045B00007C0AA1FBB1FA617B70710F0A61BB70B93
:1045C000881F991F5A95A9F780959095BC01CD0138
:1045D000089597FB072E16F4009407D077FD09D0B5
:1045E0000E94D52207FC05D03EF4909581959F4FFF
:1045F0000895709561957F4F08950E94A720B7FF99
:104600000895821B930B0895EE0FFF1F0590F49100
:10461000E02D0994CF93DF938230910510F482E06E
:1046200090E0E0913907F0913A0720E030E0C0E0F7
:10463000D0E0309711F14081518148175907C0F0FF
:104640004817590761F482819381209719F09B8361
:104650008A832BC090933A078093390726C021158F
:10466000310519F04217530718F49A01BE01DF0112
:10467000EF010280F381E02DDCCF2115310509F136
:10468000281B390B2430310590F412968D919C91A2
:1046900013976115710521F0FB019383828304C098
:1046A00090933A0780933907FD01329644C0FD018B
:1046B000E20FF31F81939193225031092D933C9384
:1046C0003AC02091370730913807232B41F42091CD
:1046D0004A0130914B0130933807209337072091DE
:1046E0004801309149012115310541F42DB73EB7FC
:1046F00040914C0150914D01241B350BE09137073F
:10470000F0913807E217F307A0F42E1B3F0B281790
:10471000390778F0AC014E5F5F4F2417350748F03A
:104720004E0F5F1F50933807409337078193919343
:1047300002C0E0E0F0E0CF01DF91CF9108950F9348
:104740001F93CF93DF93009709F48CC0FC0132973D
:10475000138212820091390710913A070115110551
:1047600081F420813181820F931F2091370730918E
:1047700038072817390779F5F0933807E09337079A
:1047800071C0D80140E050E0AE17BF0750F4129658
:104790002D913C911397AD012115310509F1D901F6
:1047A000F3CF9D01DA013383228360817181860F0B
:1047B000971F8217930769F4EC0128813981260F2E
:1047C000371F2E5F3F4F318320838A819B819383E4
:1047D0008283452B29F4F0933A07E093390742C0CE
:1047E0001396FC93EE931297ED01499159919E0116
:1047F000240F351FE217F30771F480819181840F34
:10480000951F029611969C938E93828193811396A5
:104810009C938E931297E0E0F0E0D80112968D9170
:104820009C911397009719F0F8018C01F6CF8D91A8
:104830009C9198012E5F3F4F820F931F2091370765
:10484000309138072817390769F4309729F4109206
:104850003A071092390702C0138212821093380768
:1048600000933707DF91CF911F910F910895A0E03A
:10487000B0E0EDE3F4E20C945220EC01009721F457
:10488000CB010E940A23B8C0FC01E60FF71F9C0170
:1048900022503109E217F30708F4ACC0D9010D9199
:1048A0001C91119706171707B0F00530110508F491
:1048B0009FC0C80104978617970708F499C0025053
:1048C0001109061B170B019311936D937C93CF0174
:1048D0000E949F238DC05B01A01AB10A4C01800E7B
:1048E000911EA0913907B0913A0740E050E0E12CC9
:1048F000F12C109709F44AC0A815B905D1F56D90AF
:104900007C901197630182E0C80ED11CCA14DB04AD
:1049100080F1A3014A195B096A0182E0C80ED11C2B
:104920001296BC9012971396AC91B5E0CB16D104B9
:1049300040F0B282A38351834083D9016D937C936D
:104940000AC00E5F1F4FC301800F911FF9019183B1
:104950008083EB2DFA2FE114F10431F0D701139687
:10496000FC93EE93129744C0F0933A07E093390713
:104970003FC08D919C9111974817590708F4AC01DD
:104980007D0112960D90BC91A02DB3CF8091370779
:104990009091380788159905E1F446175707C8F430
:1049A0008091480190914901009741F48DB79EB7DD
:1049B00040914C0150914D01841B950BE817F9076C
:1049C000C8F4F0933807E0933707F90171836083E7
:1049D0000FC0CB010E940A237C01009759F0A80167
:1049E000BE010E940625CE010E949F23C70104C07C
:1049F000CE0102C080E090E0CDB7DEB7EEE00C94CF
:104A00006E2081E090E0F8940C941625FB01DC0107
:104A100002C001900D9241505040D8F70895FB011B
:104A2000DC0101900D920020E1F70895F894FFCF8A
:104A3000C40100000400C3AD600042120000000089
:104A4000000000000000000000000000000000194D
:104A50002A11B0422A11B831C0002A91940000A84E
:104A6000C400F7CF1214806F46080086066100006C
:104A7000109E23C804060E1C00003B0780000100A6
:104A800000000020011B10E900C700DB00670100E7
:104A90000000002102F101E901D501C601C50100B4
:104AA00000000069021B10BD02D5025002680273AB
:104AB000657474696E6720766F6C756D653A200059
:104AC000737461727420706C6179696E67007365CC
:104AD000742062706D207768696C652070617573F1
:104AE00065643A200073746F7020706C6179696E30
:104AF00067006E65787420736F6E673A200070727D
:104B0000657620736F6E673A20007365742062705B
:104B10006D3A2000747261636B3A2000736574749F
:104B2000696E672062706D3A200062706D20617559
:104B3000746F206D6F6465006175746F2062706DB5
:104B40003A20000D0A002D2D2D2D2D2D2D2D2D2D32
:104B50002D2D2D2D2D2D2D2D2D2D2D2D2D2D2D2D85
:104B60002D2D2D2D2D2D00202D20494D552042502D
:104B70004D3A20006E616E00696E66006F766600C9
:00000001FF
