:100000000C949D000C94C5000C94C5000C94320611
:100010000C9432060C9432060C94C5000C94C50066
:100020000C94C5000C94C5000C94C5000C94C5003C
:100030000C94C5000C94C5000C94C5000C94C5002C
:100040000C9490110C94C5000C94B4040C948E0480
:100050000C94C5000C94C5000C94C5000C94C5000C
:100060000C94E6040C94C500084AD73B3BCE016EC5
:1000700084BCBFFDC12F3D6C74319ABD56833DDAFF
:100080003D00C77F11BED9E4BB4C3E916BAAAABE0E
:10009000000000803F006932635772697465206612
:1000A00061696C65643A200069326352656164205D
:1000B00074696D656F75740069326352656164209F
:1000C0006661696C65643A20004572726F722072D5
:1000D000656164696E672073656E736F72000000FE
:1000E0000000250028002B0000000000230026004F
:1000F00029000404040404040404020202020202AB
:1001000003030303030301020408102040800102DB
:100110000408102001020408102000000000240040
:1001200027002A0000000008000201000003040765
:100130000000000000000000131D11241FBECFEFBF
:10014000D8E0DEBFCDBF12E0A0E0B1E0E2E9FAE422
:1001500002C005900D92A035B107D9F727E0A0E5C0
:10016000B2E001C01D92AB33B207E1F710E0CDE978
:10017000D0E004C02197FE010E943523CC39D1077D
:10018000C9F70E9401120C9447250C940000FC0151
:10019000918D828D981761F0828DDF01A80FB11DBE
:1001A0005D968C91928D9F5F9F73928F90E00895E2
:1001B0008FEF9FEF0895FC01918D828D981731F09C
:1001C000828DE80FF11D858D90E008958FEF9FEFF0
:1001D0000895FC01918D228D892F90E0805C9F4FC6
:1001E000821B91098F739927089580ED93E00E94F7
:1001F000E90021E0892B09F420E0822F0895FC0119
:10020000848DDF01A80FB11DA35ABF4F2C91848D9F
:1002100090E001968F739927848FA689B7892C93D4
:10022000A089B1898C9180648C93938D848D98136F
:1002300006C00288F389E02D80818F7D8083089538
:10024000EF92FF920F931F93CF93DF93EC0181E026
:10025000888F9B8D8C8D981305C0E889F9898081E2
:1002600085FD24C0F62E0B8D10E00F5F1F4F0F731E
:100270001127E02E8C8DE8120CC00FB607FCFACFC8
:10028000E889F989808185FFF5CFCE010E94FF00C2
:10029000F1CF8B8DFE01E80FF11DE35AFF4FF08285
:1002A0000B8FEA89FB898081806207C0EE89FF8914
:1002B0006083E889F98980818064808381E090E0AF
:1002C000DF91CF911F910F91FF90EF900895CF9301
:1002D000DF93EC01888D8823C9F0EA89FB8980814E
:1002E00085FD05C0A889B9898C9186FD0FC00FB620
:1002F00007FCF5CF808185FFF2CFA889B9898C9161
:1003000085FFEDCFCE010E94FF00E7CFDF91CF91B7
:10031000089580E090E0892B29F00E94F50081117A
:100320000C940000089585ED8093BC008091BC0082
:1003300084FDFCCF1092AB0308954091B202262FAA
:1003400030E0240F311D21323105DCF42091AB0364
:100350002430C9F4FC0180E090E0861758F4309115
:10036000B2022191DC01A057BD4FA30FB11D2C9308
:100370000196F3CF8091B202680F6093B20280E0E1
:10038000089581E0089582E008950895E091D802EB
:100390008091D702E81730F4F0E0EB59FC4F8081F0
:1003A00090E008958FEF9FEF08959091D80280918B
:1003B000D702981750F4E92FF0E0EB59FC4F208159
:1003C00030E09F5F9093D80202C02FEF3FEFC9014A
:1003D00008958091D70290E02091D802821B910964
:1003E0000895CF92DF92EF92FF920F931F93CF93D6
:1003F000DF937C01262F972F8A018091AC038823FD
:1004000091F0C62FD72F6E01C40ED51ECC15DD0579
:1004100071F06991D701ED91FC910190F081E02D8F
:10042000C7010995F3CF642F822F0E949D01C80157
:10043000DF91CF911F910F91FF90EF90DF90CF90C0
:100440000895CF93DF931F92CDB7DEB769832091D4
:10045000AC032223D1F02091CF03203240F021E0E1
:1004600030E0FC013383228380E090E015C080916E
:10047000AD03E82FF0E0E255FC4F998190838F5F48
:100480008093AD038093CF0305C061E0CE01019658
:100490000E949D0181E090E00F90DF91CF9108953F
:1004A00020917B0430917C042817390771F49091D6
:1004B000790480917A04981741F0E0917904F0E092
:1004C000E05BFD4F808190E008958FEF9FEF0895EE
:1004D00008951F93CF93DF93DC015C962D913C919F
:1004E0005D972115310539F481E090E013969C93D6
:1004F0008E9312973DC05196ED91FC915297509674
:100500009C915097892F80951FB75E964C915E976E
:1005100041FB772770F941FD6095F894408177237E
:1005200011F0492B01C048234083E9012197F1F7DD
:1005300048E0508160FF02C0592B01C0582350830E
:10054000E9012197F1F76695415099F7772321F05A
:1005500090818923808303C08081982B90831FBF63
:100560005C968D919C915D970197F1F721E030E0C9
:10057000C901DF91CF911F91089520917B043091A3
:100580007C042817390771F480917A04209179044A
:1005900090E0805C9F4F821B910960E470E00E94B4
:1005A0001A23089580E090E0089520917B04309113
:1005B0007C0428173907B9F49091790480917A0462
:1005C000981789F0E0917904F0E0E05BFD4F8081BD
:1005D0002091790430E02F5F3F4F2F733327209312
:1005E000790490E008958FEF9FEF08950E943225DF
:1005F0000F931F93CF93DF93CDB7DEB728970FB636
:10060000F894DEBF0FBECDBF80917D0490917E0433
:100610009C01275F3F4F261737072CF00997681773
:1006200079070CF095C070937E0460937D04072ECB
:10063000000C880B990B0E94431F20E030E040E83B
:1006400053E40E94A21F20E030E849E254E40E94F3
:10065000C62120E030E040E85FE30E94E7200E94EE
:1006600038226F3F710519F014F06FEF70E08B01C5
:1006700077FF02C000E010E08FE791E00E94EE0DEE
:10068000C8010E94BD0D8091F9059091FA05813055
:10069000910589F18230910509F446C0892B09F052
:1006A00057C02FE030E0D8010E942E232FEF30E01A
:1006B00040E050E00E946020ABE5B3E0FE013196DF
:1006C000BF018D91819383E0A336B807D1F7809164
:1006D0006203807F282B28878C818F7E8C8348E063
:1006E00050E080E00E94B20C62E370E080E090E0B5
:1006F0000E944A112DC019821A821B821C8286E038
:1007000089832EE130E0D8010E942E232FEF30E0C4
:1007100040E050E00E9460202C836AE070E0CE014F
:1007200001960E94B00B14C087EA89832FE130E064
:10073000D8010E942E232FEF30E040E050E00E94CD
:1007400060202A83BE016F5F7F4F83E00E94700BA1
:1007500028960FB6F894DEBF0FBECDBFDF91CF91C4
:100760001F910F910895CF92DF92EF92FF920F9316
:100770001F93CF93DF9300D000D0CDB7DEB78C01AD
:100780007B01C090A104D090A20481E0C816D104DE
:1007900049F082E0C816D10409F44EC0CD2809F012
:1007A000B0C053C00115110531F580E991E00E94F8
:1007B000370E8091F9059091FA058130910549F045
:1007C0008230910589F0892B79F480E00E94F00D48
:1007D0000BC08DE089831A821B821C826AE070E064
:1007E000CE0101960E94B00B82E090E09093A204AB
:1007F0008093A10486C00330110509F082C0CB01AB
:100800008857910964E170E00E9406238B01000F74
:10081000111F0F5F1F4F8EE991E00E94EE0DC7017F
:100820000E94BD0D1093A4040093A304C8010E946C
:10083000220D0E94060E65C00115110549F485EBD5
:1008400091E00E94370E0E94060E81E090E0CECF2C
:100850000130110559F482EC91E00E94EE0D2091D7
:10086000A3043091A404C901B6010DC002301105E2
:1008700021F58EEC91E00E94EE0D2091A3043091C1
:10088000A404C901B8010E941A23019719F42F5F2B
:100890003F4F02C0215031093093A4042093A30498
:1008A0008091A3049091A4040E94BD0D8091A304A3
:1008B0009091A4040E94220D24C00330110509F573
:1008C0008AED91E00E94EE0DC7010E94BD0DC701A7
:1008D0008857910964E170E00E9406238B01000FA4
:1008E000111F0F5F1F4F84EE91E00E94EE0DC801B3
:1008F0000E94BD0DC8010E94220D1093A404009314
:10090000A3040F900F900F900F90DF91CF911F9144
:100910000F91FF90EF90DF90CF9008951F920F926C
:100920000FB60F9211242F933F934F935F936F93C2
:100930007F938F939F93AF93BF93EF93FF9380ED3C
:1009400093E00E94FF00FF91EF91BF91AF919F91C3
:100950008F917F916F915F914F913F912F910F9068
:100960000FBE0F901F9018951F920F920FB60F9207
:1009700011242F938F939F93EF93FF93E091E003C4
:10098000F091E1038081E091E603F091E70382FDBD
:1009900012C090818091E9038F5F8F732091EA03E9
:1009A000821751F0E091E903F0E0E053FC4F958F9E
:1009B0008093E90301C08081FF91EF919F918F9116
:1009C0002F910F900FBE0F901F9018951F920F92AE
:1009D0000FB60F9211242F933F934F935F936F9312
:1009E0007F938F939F93AF93BF93EF93FF938091E8
:1009F000B900887F803609F49CC068F5883209F414
:100A00005BC090F4803109F454C038F4882309F4B1
:100A1000F6C0883009F44DC0F6C0883109F44CC0E6
:100A2000803209F45DC0EFC0803409F468C048F436
:100A3000803309F455C0883309F0E5C08093A903D9
:100A4000D8C0803509F44FC0883509F45DC08834BA
:100A500009F0D9C0D6C0883909F4C7C0A8F48837CE
:100A600009F467C038F4883609F463C0803709F4A4
:100A700060C0C9C0883809F4B8C0803909F45FC0C3
:100A8000803809F0C0C05BC0803B09F486C038F4F0
:100A9000803A09F466C0883A09F47FC0B4C0803C4B
:100AA00009F4A7C0883C09F4A4C0883B09F48AC0B3
:100AB000AAC08091860310C09091A8038091A703DB
:100AC000981770F5E091A80381E08E0F8093A8033A
:100AD000F0E0E957FC4F80818093BB0085EC86C035
:100AE0008093A9038EC0E091A80381E08E0F8093CC
:100AF000A8038091BB00F0E0E957FC4F8083909100
:100B0000A8038091A7036EC0E091A80381E08E0F37
:100B10008093A8038091BB00F0E0E957FC4F8083ED
:100B20008091AA0381116DC081E08093850384EADE
:100B300061C083E08093AB031092D602CFCF809147
:100B4000D602803208F051C0E091D60281E08E0FCB
:100B50008093D6028091BB00F0E0EA54FD4F808381
:100B6000BDCF85EC8093BC001092AB038091D60280
:100B7000803230F4E091D602F0E0EA54FD4F10826A
:100B80006091D60270E0E091B402F091B50286EB7C
:100B900092E009951092D60236C084E08093AB03B0
:100BA0001092B3021092B202E091B002F091B10241
:100BB00009958091B202811105C081E08093B20253
:100BC00010929002E091B30281E08E0F8093B30205
:100BD000F0E0E057FD4F80818093BB009091B3021D
:100BE0008091B202981708F479CF85E88093BC0011
:100BF0000AC085EC8093BC001092AB0304C0109235
:100C0000A9030E949301FF91EF91BF91AF919F9132
:100C10008F917F916F915F914F913F912F910F90A5
:100C20000FBE0F901F9018951092AB0381E0809338
:100C3000AA031092850361E082E10E94A21061E0A4
:100C400083E10E94A210E9EBF0E080818E7F808337
:100C500080818D7F808388E48093B80085E48093D1
:100C6000BC0008951F920F920FB60F9211242F937C
:100C70003F934F935F936F937F938F939F93AF9324
:100C8000BF93EF93FF93E0917B04F0917C04309746
:100C900009F451C0968DA685B785858591FF04C05E
:100CA0009C91892329F447C09C91892309F043C072
:100CB000A389B4899C918589809589238C938689A1
:100CC00097890197F1F7608D718DA685B785558558
:100CD00038E020E0CB010197F1F7822F90E0959565
:100CE0008795282F4C91452309F02068315091F7C2
:100CF000868D81FD209580917A0490E001968F7316
:100D0000992730917904381749F0A0917A04B0E01E
:100D1000A05BBD4F2C9380937A0403C0868D8160C5
:100D2000868F828D938D0197F1F7A389B4899C9169
:100D30008589892B8C93FF91EF91BF91AF919F9102
:100D40008F917F916F915F914F913F912F910F9074
:100D50000FBE0F901F901895EF92FF920F931F9365
:100D6000CF93CFB7C078F8948C010C5B1F4FD8019C
:100D70002D913C912031310529F17C01B2E4EB0E3B
:100D8000F11CD701ED91FC91DF01AA0FBB1FAA0F47
:100D9000BB1FA80FB91F11967C936E9313965C939B
:100DA0004E931297CF01019660E170E00E941A23E2
:100DB000F701918380832F5F3F4FD8012D933C93A0
:100DC00081E001C080E0CC2309F07894CF911F919D
:100DD0000F91FF90EF9008950F931F93CF93DF93A0
:100DE000EB010E9484110091830410918404012E70
:100DF000000C220B330BDC01CB01801B910BA20BEF
:100E0000B30B0B97A105B10570F18091810490910E
:100E100082048130910541F08230910571F0892B77
:100E2000E1F481E090E004C02197B9F482E090E021
:100E3000909382048093810410C0219771F081E027
:100E400090E0909382048093810440E050E061E060
:100E500070E083E496E00E94AC060E9484117093D7
:100E6000840460938304DF91CF911F910F910895C3
:100E70000F931F93CF93DF93EB010E948411009196
:100E8000890410918A04012E000C220B330BDC0123
:100E9000CB01801B910BA20BB30B0B97A105B105E6
:100EA00070F180918704909188048130910541F020
:100EB0008230910571F0892BE1F481E090E004C06B
:100EC0002197B9F482E090E090938804809387049E
:100ED00010C0219771F081E090E090938804809396
:100EE000870440E050E062E070E083E496E00E9416
:100EF000AC060E94841170938A0460938904DF9188
:100F0000CF911F910F9108950F931F93CF93DF936C
:100F1000EB010E94841100918F0410919004012E26
:100F2000000C220B330BDC01CB01801B910BA20BBD
:100F3000B30B0B97A105B10570F180918D049091D1
:100F40008E048130910541F08230910571F0892B3A
:100F5000E1F481E090E004C02197B9F482E090E0F0
:100F600090938E0480938D0410C0219771F081E0DE
:100F700090E090938E0480938D0440E050E060E018
:100F800070E083E496E00E94AC060E9484117093A6
:100F9000900460938F04DF91CF911F910F9108957A
:100FA000CF93DF938456910964E970E00E941A237D
:100FB00084E1869FE001879FD00D1124C858DF4F40
:100FC0008091970490919804C817D90791F08CEEFE
:100FD00091E00E94EE0DCE010E94BD0DAE0163E0D6
:100FE00070E083E496E00E94AC06D0939804C0932E
:100FF0009704DF91CF910895CF92DF92EF92FF9205
:101000000F931F93CF93DF93EB01209193043091C3
:1010100094042130310539F02230310599F1232B28
:1010200009F0D3C028C00A9709F0CFC08091990475
:1010300090919A049C012C5F3F4F261737072CF0A4
:101040000497681779070CF0C0C0D0939A04C09336
:101050009904C536D1055CF0CE01DF91CF911F9187
:101060000F91FF90EF90DF90CF900C94D0078AEF14
:1010700091E00E94370E82E090E090939404809378
:101080009304A3C08A309105E9F48091990490916A
:101090009A049C012C5F3F4F261737072CF00497CA
:1010A000681779070CF091C0D0939A04C093990403
:1010B000C536D1050CF489C0CE010E94D00781E06D
:1010C00090E0DBCF069709F080C023E333E343E7EA
:1010D0005FE360919B0470919C0480919D049091CA
:1010E0009E040E94A21F6B017C01BE01DD0F880BD4
:1010F000990B0E94431F20ED3CEC4CE45DE30E9401
:10110000A21F9B01AC01C701B6010E94E8206093B9
:101110009B0470939C0480939D0490939E0420E014
:1011200030E040EF50E40E94E72020E030E040E271
:1011300051E40E94C6210E9438226F5F7F4F8AE0EF
:10114000869FE001879FD00D1124CC0FDD1FC8378B
:10115000D10510F4C8E7D0E0C53BD10510F0C4EBD1
:10116000D0E08091970490919804C817D90769F14D
:101170000E9484110091950410919604012E000C98
:10118000220B330BDC01CB01801B910BA20BB30BA9
:10119000893B9B40A105B105C0F088E092E00E9428
:1011A000EE0DCE010E94BD0DAE0163E070E083E460
:1011B00096E00E94AC06D0939804C09397040E94D6
:1011C00084117093960460939504DF91CF911F91E1
:1011D0000F91FF90EF90DF90CF900895EF92FF92E4
:1011E0000F931F93CF93DF937C018B01613208F043
:1011F00060E280E10E946E0C1092D8028093D702C8
:10120000E701CE018E199F098017910734F48DE60E
:1012100094E00E94D5018993F4CFDF91CF911F9183
:101220000F91FF90EF900895CF92DF92EF92FF928F
:101230000F931F93CF93DF93D82FF42EE52E122F09
:1012400081E08093AC03D093CE031092AD03109253
:10125000CF038DE694E00E94210280E00E94110CF1
:10126000C82F882389F088EB90E00E94D50E6C2F60
:1012700070E080E090E04AE00E94710D83E192E02E
:101280000E945F0D8C2F44C0612F113208F060E284
:101290008D2F0E946E0C1092D8028093D7020F2DD2
:1012A000CF2DDE2D8C2F801B811728F59091D70232
:1012B0008091D802981318C00E9425116B017C01FF
:1012C0000E942511DC01CB018C199D09AE09BF09D3
:1012D0003091D7022091D802883E9340A105B105F4
:1012E00060F4321769F309C08DE694E00E94D501DD
:1012F00088832196D7CF80E00BC03213F5CF88EAE0
:1013000090E00E94D50E83E192E00E945F0D85E09F
:10131000DF91CF911F910F91FF90EF90DF90CF90D1
:101320000895EF92FF920F93CF93DF931F92CDB763
:10133000DEB77A0191E09093AC038093CE031092D4
:10134000AD031092CF038DE694E029830E94210221
:101350002981422F50E0B7018DE694E00E94F1010F
:10136000802F0E94110C082F882389F086E990E0D5
:101370000E94D50E802F90E0A0E0B0E04AE0BC01D2
:10138000CD010E94710D83E192E00E945F0D802FDC
:101390000F90DF91CF910F91FF90EF9008952F92D2
:1013A0003F924F925F926F927F928F929F92AF92F5
:1013B000BF92CF92DF92EF92FF920F931F93CF9342
:1013C000DF93CDB7DEB76C970FB6F894DEBF0FBED4
:1013D000CDBF1C014D8B5E8B6F8B788FC901B8011F
:1013E000D10150962D913D914D915C915397298B50
:1013F0003A8B4B8B5C8B0E94E7209B01AC01F10187
:10140000648B758B868B978BC701B6010E94A21FD8
:10141000D1011C962D913D914D915C911F970E9499
:10142000E8206D877E878F87988BD10194962D91C8
:101430003D914D915C91979729833A834B835C83CF
:10144000C701B6010E94A21F4B015C01D1015C964D
:101450002D913D914D915C915F972D833E834F83FC
:10146000588790962D913D914D915C919397298746
:101470003A874B875C872D813E814F8158850E943A
:10148000E72029853A854B855C850E94E720F1019C
:1014900020813181428153810E94E8209B01AC016F
:1014A000C701B6010E94A21FD10158962D913D910E
:1014B0004D915C915B970E94E8202B013C01A501B6
:1014C00094016D817E818F8198850E94E7206D83D4
:1014D0007E838F839887A501940169857A858B85A2
:1014E0009C850E94E72069877A878B879C87F1011A
:1014F0002481358146815781C701B6010E94A21F10
:101500009B01AC0169817A818B819C810E94E820DA
:10151000698F7A8F8B8F9C8FD10118962D913D9179
:101520004D915C911B97C301B2010E94E8206B01B1
:101530007C01F10164AB75AB86AB97AB9B01AC0151
:10154000C301B2010E94C6214B015C01D1019896F2
:101550006D937D938D939C939B97A70196016985CD
:101560007A858B859C850E94C6216B017C01F101E7
:1015700064A775A786A797A72D853E854F855889AF
:101580006D897E898F89988D0E94E72069837A838F
:101590008B839C83D101D0966D937D938D939C9387
:1015A000D3979B01AC01C501B4010E94A21F9B010E
:1015B000AC016D857E858F8598890E94E8206D87B6
:1015C0007E878F87988BF1016487758786879787D9
:1015D00029813A814B815C81C701B6010E94A21F1B
:1015E0009B01AC0169897A898B899C890E94E820DA
:1015F000D10150966D937D938D939C935397A30146
:101600009201C501B4010E94A21F9B01AC01C3015C
:10161000B2010E94E7202B013C01F101608F718F24
:10162000828F938F2D813E814F815885C501B401F2
:101630000E94A21F9B01AC016D817E818F819885E4
:101640000E94E7204B015C01D1015C966D937D9374
:101650008D939C935F97A3019201C701B6010E94ED
:10166000A21F9B01AC0169857A858B859C850E94B0
:10167000E720F10160A371A382A393A3A5019401C4
:10168000C701B6010E94A21F9B01AC01698D7A8D32
:101690008B8D9C8D0E94E720D10194966D937D9354
:1016A0008D939C9397976D857E858F8598896C9691
:1016B0000FB6F894DEBF0FBECDBFDF91CF911F9163
:1016C0000F91FF90EF90DF90CF90BF90AF909F90E1
:1016D0008F907F906F905F904F903F902F900895E4
:1016E000EF92FF920F931F93CF93DF93C82F7B014D
:1016F0008091FB059091FC05DC01ED91FC9101903E
:10170000F081E02D6EE709958701D0E02197809167
:10171000FB059091FC0598012E193F092C173D07F8
:101720005CF4F80161918F01DC01ED91FC91019075
:10173000F081E02D0995EBCFDC01ED91FC9101905A
:10174000F081E02D6EE709956AE070E080E090E0BE
:10175000DF91CF911F910F91FF90EF900C944A1160
:10176000EF92FF920F931F93CF93DF937C018B0136
:101770008091FB059091FC05DC01ED91FC910190BD
:10178000F081E02D6EE709958091FB059091FC05B5
:10179000DC01ED91FC910190F081E02D6FEF099556
:1017A0008091FB059091FC05DC01ED91FC9101908D
:1017B000F081E02D66E00995E701B4E0EB0EF11C45
:1017C0008091FB059091FC056991DC01ED91FC9104
:1017D0000190F081E02D0995CE15DF0589F7809104
:1017E000FB059091FC05DC01ED91FC910190F081ED
:1017F000E02D6FEE09951016110664F4B801110F73
:10180000880B990BDF91CF911F910F91FF90EF9073
:101810000C944A11DF91CF911F910F91FF90EF909F
:101820000895382F2091CF039091CE03213208F0F4
:1018300049C08091AB038111FCCF42E04093AB03E0
:101840003093AA033FEF3093A9031092A80320938B
:10185000A703AEEAB3E047E853E0FA013E2F341B9A
:10186000321718F43D913193F9CF109286032091ED
:101870008603990F922B9093860390918503913064
:1018800061F410928503909186039093BB00909130
:10189000BC0093FDF8CF95EC01C095EE9093BC0091
:1018A0009091AB039230E1F39091A9039F3F79F0BF
:1018B0008091A903803241F08091A903803331F0F7
:1018C00084E005C081E003C082E001C083E01092A3
:1018D000AD031092CF031092AC0308959091AB0327
:1018E0009111FCCF91E09093AB039093AA032FEF5B
:1018F0002093A9031092A803260F2093A703909387
:10190000860390918603880F892B809386038091AC
:101910008503813061F41092850380918603809362
:10192000BB008091BC0083FDF8CF85EC01C085EE43
:101930008093BC008091AB038130E1F38091A803D8
:10194000861710F46091A803A7E8B3E025E633E01A
:10195000F9018E2F821B861718F48D918193F9CF90
:10196000862F0895EF92FF920F931F93CF93DF93EB
:10197000EB01813051F4BA01CE01DF91CF911F917B
:101980000F91FF90EF900C94EE088A0181E0809314
:10199000AC0380E18093CE031092AD031092CF038D
:1019A0007B01C7018C1B9D0B8017910744F4F70145
:1019B00061917F018DE694E00E942102F2CF81E0E7
:1019C000DF91CF911F910F91FF90EF900C94110C2C
:1019D0009C01FC01E05BFD41CF016AE070E00E94E8
:1019E0000623245639412C34344010F48CE004C0D2
:1019F000E038FC4018F488E080935E0380915B033C
:101A0000806480935B03CB01969587959695879527
:101A100080935D0380915E038F7080616295660F95
:101A2000660F607C682B60935E0344E050E06BE5DA
:101A300073E080E00E94B20C62E370E080E090E02E
:101A40000C944A11CF93DF9300D000D0CDB7DEB70E
:101A50002091F9053091FA052130310541F022300D
:101A60003105C1F0232B21F50E94E80C21C0198219
:101A70001A821B821C8223E029836FEF70E00E9490
:101A800006236B838C836AE070E0CE0101960E948E
:101A9000B00B0EC020EA29836FEF70E00E9406238E
:101AA0006A838B83BE016F5F7F4F84E00E94700B5F
:101AB0000F900F900F900F90DF91CF9108950097A6
:101AC00069F0FC0101900020E9F73197AF01481B54
:101AD000590BBC0180ED93E00C944E1080E090E037
:101AE00008958F929F92AF92BF920F931F93CF93BF
:101AF000DF93CDB7DEB7A1970FB6F894DEBF0FBE68
:101B0000CDBF19A2423008F44AE08E010F5D1F4F8D
:101B1000842E912CA12CB12CA50194010E94B620F9
:101B2000E62FB901CA0101501109EA3014F4E05D51
:101B300001C0E95CD801EC93232B242B252B61F702
:101B4000C8010E945F0DA1960FB6F894DEBF0FBECC
:101B5000CDBFDF91CF911F910F91BF90AF909F901C
:101B60008F900895E091D003F091D1030190F0811E
:101B7000E02D682F80ED93E00994CF92DF92EF92F1
:101B8000FF92CF93DF936C01990FEE08FF08F7FEE9
:101B900012C08DE20E94B20DEC0166277727CB01BF
:101BA0006C197D098E099F094AE00E94710D7C0124
:101BB000EC0EFD1E06C04AE0C701B6010E94710D81
:101BC0007C0183E192E00E945F0D8E0D9F1DDF91ED
:101BD000CF91FF90EF90DF90CF9008950C945F0D20
:101BE00090915B03882311F09F7B01C090649093D8
:101BF0005B0342E050E06BE573E080E00E94B20CD2
:101C000062E370E080E090E00C944A11CF93DF93A0
:101C100000D000D0CDB7DEB78091F9059091FA05DC
:101C20008130910549F08230910591F0892BC1F402
:101C300081E00E94F00D14C08EE089831A821B821D
:101C40001C826AE070E0CE0101960E94B00B08C0D1
:101C500083EA8983BE016F5F7F4F82E00E94700B31
:101C60000F900F900F900F90DF91CF910895CF9329
:101C7000DF930E945F0DEC0183E192E00E945F0D13
:101C80008C0F9D1FDF91CF9108956115710509F1AA
:101C90004091890650918A0640325105D1F0E5E025
:101CA000E49F9001E59F300D112423503A4FF90134
:101CB000E257FF4F7183608332969183808332961F
:101CC00081E080834F5F5F4F50938A06409389067F
:101CD000089580E008958F929F92AF92BF92CF9225
:101CE000DF92EF92FF92C0902005D0902105E09006
:101CF0002205F090230580901C0590901D05A09072
:101D00001E05B0901F05A7019601C501B4010E94F0
:101D1000672121EE3EE245E652E40E94A21F609355
:101D20003205709333058093340590933505A501F2
:101D30009401C501B4010E94A21F4B015C01A701DF
:101D40009601C701B6010E94A21F9B01AC01C5010B
:101D5000B4010E94E8200E94A8229B01AC0180915E
:101D6000180590911905A0911A05B0911B05BC01A9
:101D7000CD0190580E94C6210E94972121EE3EE29B
:101D800045E652E40E94A21F609336057093370522
:101D90008093380590933905FF90EF90DF90CF90B6
:101DA000BF90AF909F908F9008950F931F93CF9304
:101DB000DF938C01C0E0D0E0F801EC0FFD1F6491CF
:101DC000662371F0E091D003F091D1030190F0818E
:101DD000E02D80ED93E00995892B11F02196ECCF51
:101DE000CE01DF91CF911F910F9108952EE048E62B
:101DF00055E06BE3809117050E9414098111F6CF1D
:101E00006091680570E0762F662780916905682BE0
:101E1000072E000C880B990B0E94431F6093180536
:101E20007093190580931A0590931B0560916A05BC
:101E300070E0762F662780916B05682B7195619510
:101E40007109072E000C880B990B0E94431F6093A9
:101E50001C0570931D0580931E0590931F056091CE
:101E60006C0570E0762F662780916D05682B072E34
:101E7000000C880B990B0E94431F60932005709300
:101E80002105809322059093230580916E0590E0B3
:101E9000982F882720916F05822B9093310580938E
:101EA00030056091700570E0762F66277195619519
:101EB000710980917105682B072E000C880B990B16
:101EC0000E94431F60932405709325058093260587
:101ED000909327056091720570E0762F66278091B8
:101EE0007305682B072E000C880B990B0E94431F6B
:101EF000609328057093290580932A0590932B05FC
:101F00006091740570E0762F66277195619571096F
:101F100080917505682B072E000C880B990B0E9489
:101F2000431F60932C0570932D0580932E0590938D
:101F30002F050895AF92BF92CF92DF92EF92FF925A
:101F40000F931F93CF93DF937C015B010BE816E0A7
:101F5000C12CD12CC0E0D0E08091890690918A06F6
:101F6000C816D906DCF4D801ED91FC911197309791
:101F700079F012968D919C9113978E159F0541F4DF
:101F800014968C91882321F02196B501C7010995FB
:101F9000BFEFCB1ADB0A0B5F1F4FDECF209779F420
:101FA000E0912B07F0912C07309749F080912D0795
:101FB000882329F0B501C7010995C1E0D0E0CE0121
:101FC000DF91CF911F910F91FF90EF90DF90CF9015
:101FD000BF90AF9008950F931F930E948411609358
:101FE000D8037093D9038093DA039093DB03E091D5
:101FF000D003F091D1030680F781E02D80ED93E0CE
:10200000099597FF1FC00E9484110091D803109179
:10201000D9032091DA033091DB03DC01CB01801B73
:10202000910BA20BB30B0091D4031091D503209117
:10203000D6033091D70380179107A207B307B8F2F0
:102040008FEF9FEF1F910F910895833081F028F457
:10205000813099F08230A1F008958730A9F088305E
:10206000B9F08430D1F4809180008F7D03C08091DD
:1020700080008F7780938000089584B58F7702C0A9
:1020800084B58F7D84BD08958091B0008F7703C0A3
:102090008091B0008F7D8093B0000895CF92DF9241
:1020A000EF92FF920F931F93CF93DF936C017A010E
:1020B0008B01C0E0D0E0CE15DF0589F0D8016D912D
:1020C0008D01D601ED91FC910190F081E02DC601CA
:1020D0000995892B11F47E0102C02196ECCFC7012E
:1020E000DF91CF911F910F91FF90EF90DF90CF90F4
:1020F0000895CF93DF93282F30E0F901EC5DFE4F78
:102100008491F901EA5FFE4FD491F901EE50FF4F3F
:10211000C491CC2391F081110E942510EC2FF0E0A6
:10212000EE0FFF1FE851FF4FA591B491EC91ED2305
:1021300081E090E021F480E002C080E090E0DF9157
:10214000CF9108951F93CF93DF93282F30E0F901AB
:10215000EC5DFE4F8491F901EA5FFE4FD491F901E5
:10216000EE50FF4FC491CC23C9F0162F81110E946D
:102170002510EC2FF0E0EE0FFF1FE252FF4FA5916C
:10218000B4918FB7F894111105C09C91ED2FE09593
:10219000E92302C0EC91ED2BEC938FBFDF91CF913F
:1021A0001F910895CF93DF9390E0FC01EA5FFE4F0B
:1021B0002491FC01EE50FF4F8491882361F190E05F
:1021C000880F991FFC01E65EFE4FC591D491FC017A
:1021D000E252FF4FA591B491611109C09FB7F894E5
:1021E0008881209582238883EC912E230BC0623056
:1021F00061F49FB7F8943881822F80958323888378
:10220000EC912E2B2C939FBF06C08FB7F894E881DA
:102210002E2B28838FBFDF91CF9108958E3008F049
:102220008E508770806480937C0080917A008064F7
:1022300080937A0080917A0086FDFCCF80917800AF
:102240002091790090E0922B08953FB7F894809107
:10225000330790913407A0913507B091360726B522
:10226000A89B05C02F3F19F00196A11DB11D3FBFCE
:10227000BA2FA92F982F8827820F911DA11DB11D5C
:10228000BC01CD0142E0660F771F881F991F4A9558
:10229000D1F708958F929F92AF92BF92CF92DF9223
:1022A000EF92FF926B017C010E9425114B015C01B2
:1022B000C114D104E104F104F1F00E942511DC0104
:1022C000CB0188199909AA09BB09883E9340A10549
:1022D000B10570F321E0C21AD108E108F10888EED7
:1022E000880E83E0981EA11CB11CC114D104E10426
:1022F000F10419F7DDCFFF90EF90DF90CF90BF9002
:10230000AF909F908F9008952FB7F89460912F070A
:102310007091300780913107909132072FBF089557
:102320001F920F920FB60F9211242F933F938F930A
:102330009F93AF93BF9380912F0790913007A09107
:102340003107B091320730912E0723E0230F2D374C
:1023500020F40196A11DB11D05C026E8230F0296A9
:10236000A11DB11D20932E0780932F079093300756
:10237000A0933107B09332078091330790913407CF
:10238000A0913507B09136070196A11DB11D80932C
:10239000330790933407A0933507B0933607BF9166
:1023A000AF919F918F913F912F910F900FBE0F9002
:1023B0001F9018950F931F93CF93DF93EC018881A3
:1023C0009981009729F02A813B812617370788F4E5
:1023D0008B016F5F7F4F0E946824009761F09983A3
:1023E00088831B830A832C813D81232B11F4FC01FC
:1023F000108281E001C080E0DF91CF911F910F91A9
:102400000895CF93DF93CDB7DEB7C05CD1090FB687
:10241000F894DEBF0FBECDBF789484B5826084BDD2
:1024200084B5816084BD85B5826085BD85B58160D8
:1024300085BD80916E00816080936E001092810056
:102440008091810082608093810080918100816011
:1024500080938100809180008160809380008091D2
:10246000B10084608093B1008091B000816080935E
:10247000B00080917A00846080937A0080917A0025
:10248000826080937A0080917A00816080937A00E4
:1024900080917A00806880937A001092C100E09168
:1024A000E003F091E10382E08083E091DC03F091AE
:1024B000DD031082E091DE03F091DF0380E1808391
:1024C0001092E803E091E403F091E50386E0808355
:1024D000E091E203F091E303808180618083E091E9
:1024E000E203F091E303808188608083E091E2035E
:1024F000F091E303808180688083E091E203F091B2
:10250000E30380818F7D80831A8219821C821B8263
:102510001E821D8260E070E08E010F5F1F4FC801B8
:102520000E94DA1129813A8181110DC021153105EE
:1025300019F0C9010E94D0231A8219821E821D82BD
:102540001C821B822AC01E821D8265E172E0C901C5
:102550000E94402522C0CF57DF4F8883C158D0400A
:10256000CE57DF4F1882C258D040ED80FE802FEF4B
:10257000E21AF20AB701C8010E94DA11882369F051
:1025800029813A818D819E81BE016F577F4F820FD5
:10259000931F0E944025FE82ED820E94EB0F97FF61
:1025A000DACF89819A810E94D0238091F905909198
:1025B000FA05009779F0019709F06DC089E08983E9
:1025C0001A821B8282E08C8368EC70E0C8010E9452
:1025D000B00B61C01092D8021092D7021092AD03D6
:1025E0001092CF030E9414068AE0D8011D928A95AA
:1025F000E9F710925B0382E080935C0342E050E0D5
:102600006BE573E080E00E94B20C62E370E080E072
:1026100090E00E944A116AE070E0C8010E94EE0852
:1026200062E370E080E090E00E944A11898590E0CA
:10263000982F88272A85822B9093DA028093D902DB
:10264000E0E0F1E0ABE5B3E081918D9321E0E8308B
:10265000F207D1F742E050E060E071E080E00E94D4
:10266000B20C68E572E080E090E00E944A1148E414
:1026700050E060E071E080E00E94B20C62E370E044
:1026800080E090E00E944A1181E00E94F00D82E912
:1026900092E20E94E80C64E670E080E090E00E9424
:1026A0004A111092D8021092D7021092AD031092E4
:1026B000CF030E9414068CE08093B80087E08093DB
:1026C00068051092690510926A0510926B0500E08A
:1026D00024E048E655E069E1809117050E949109E0
:1026E0008111F5CF11E080911705CF57DF4F188387
:1026F000C158D04001E021E0AE014F575F4F6BE67B
:102700000E9491098111EFCF21E048E655E065E78D
:10271000809117050E9414098111F6CF80916805F8
:10272000813729F089EC90E00E94D50EFFCF64E656
:1027300070E080E090E00E944A110E94F60E0E9434
:102740006B0E8091320590913305A0913405B091C4
:1027500035058093B3049093B404A093B504B0936B
:10276000B60480933A0590933B05A0933C05B09343
:102770003D058093420590934305A0934405B09393
:1027800045058091360590913705A0913805B091A7
:1027900039058093EB049093EC04A093ED04B0937F
:1027A000EE0480933E0590933F05A0934005B093BF
:1027B00041058093460590934705A0934805B09343
:1027C00049050E9425116093540570935505809327
:1027D0005605909357050E942511609358057093F4
:1027E000590580935A0590935B0560E082E00E9452
:1027F000D21060E084E00E94D21060E083E00E948A
:10280000D21083EB93E09093A6048093A5048CEF01
:1028100097E09093A00480939F0484E897E09093BE
:1028200092048093910488E397E090938C048093C2
:102830008B048CEE96E0909386048093850488EF59
:1028400092E09093800480937F0463EB73E080E0D8
:1028500090E00E94450E6091A5047091A60481E06D
:1028600090E00E94450E6091A5047091A60482E05C
:1028700090E00E94450E6091A5047091A60483E04B
:1028800090E00E94450E60919F047091A00486E044
:1028900090E00E94450E60919F047091A0048AE030
:1028A00090E00E94450E609191047091920487E03F
:1028B00090E00E94450E60918B0470918C0488E03A
:1028C00090E00E94450E609185047091860489E035
:1028D00090E00E94450E60917F04709180048BE02F
:1028E00090E00E94450E83E192E00E945F0D86E138
:1028F00092E00E94370EE091A504F091A60460E0FA
:1029000070E080E090E00995E0919F04F091A004D0
:1029100060E070E080E090E00995E0919104F09132
:10292000920460E070E080E090E00995E0918B0413
:10293000F0918C0460E070E080E090E00995E09117
:102940008504F091860460E070E080E090E00995F5
:10295000E0917F04F091800460E070E080E090E01E
:102960000995AE014F5F5F4FCD57DF4F59834883C5
:10297000C358D0408091410690914206892B09F4BA
:1029800066C04FB7F89420913D0630913E06F9019C
:10299000EE0FFF1FEE0FFF1FE350FA4F0081118172
:1029A000E280F38068EC70E071836083C901019676
:1029B00060E170E00E941A2390933E0680933D06EA
:1029C0008091410690914206019790934206809330
:1029D000410647FD05C0B701C8010E949A0FCACF42
:1029E0007894F9CFFFB6F89440918306509184060D
:1029F0009A01220F331F220F331F23503A4FD90160
:102A0000AA5BBF4F0D911C911197F901E85BFF4F35
:102A10002081318188EC90E08D939C93CA010196CE
:102A200060E170E00E941A239093840680938306ED
:102A300080918706909188060197909388068093ED
:102A40008706F7FC0BC0B901C8010E949A0F80915C
:102A5000870690918806892B19F0C4CF7894F3CF1C
:102A600082E00E947910CD54DF4F99838883C35B45
:102A7000D04083E00E947910CB54DF4F9983888344
:102A8000C55BD04084E00E947910C954DF4F998320
:102A90008883C75BD0408EE00E940E11C754DF4F81
:102AA00099838883C95BD0408FE00E940E11C55482
:102AB000DF4F99838883CB5BD0400E9484110091C3
:102AC0005C0510915D0520915E0530915F05DC018C
:102AD000CB01801B910BA20BB30B883C9105A10588
:102AE000B10508F46EC20E94841160935C05709376
:102AF0005D0580935E0590935F050E94F60E0E942F
:102B000025110091540510915505209156053091DD
:102B10005705601B710B820B930B0E94411F20E035
:102B200034E244E759E40E94C621CB57DF4F688363
:102B300079838A839B83C558D0400E942511609376
:102B400054057093550580935605909357050E9440
:102B50006B0E20E030E043E053E460912405709177
:102B6000250580912605909127050E94C6212B01FD
:102B70003C0120E030E043E053E46091280570918F
:102B8000290580912A0590912B050E94C621C757DF
:102B9000DF4F688379838A839B83C958D0408090B4
:102BA000320590903305A0903405B090350520E0B3
:102BB00030E044EB52ECC501B4010E943C1F87FF9A
:102BC00010C020E030E044EB52E460914A0570917F
:102BD0004B0580914C0590914D050E949522181649
:102BE000D4F020E030E044EB52E4C501B4010E948F
:102BF000952218168CF520E030E044EB52EC609101
:102C00004A0570914B0580914C0590914D050E94AD
:102C10003C1F87FF21C08092B3049092B404A0921D
:102C2000B504B092B6048092420590924305A092FA
:102C30004405B092450580924A0590924B05A092BA
:102C40004C05B0924D0580923A0590923B05A092BA
:102C50003C05B0923D0518C0CB57DF4FC880D980E6
:102C6000EA80FB80C558D04093018201B501A401E0
:102C700087EA94E00E94CF0960934A0570934B0560
:102C800080934C0590934D0560914A0570914B05DA
:102C900080914C0590914D050E9438229B0177FF51
:102CA00004C022273327261B370B2B3531058CF028
:102CB000C757DF4F288139814A815B81C958D0408D
:102CC0005058C757DF4F288339834A835B83C958DD
:102CD000D04040913605509137056091380570918C
:102CE0003905CB57DF4FC880D980EA80FB80C558B3
:102CF000D040C757DF4F088119812A813B81C958CD
:102D0000D0408FED94E00E94CF09C357DF4F688316
:102D100079838A839B83CD58D04060934E0570930E
:102D20004F058093500590935105CB57DF4F288175
:102D300039814A815B81C558D040C301B2010E94EC
:102D4000A21F2B013C0120913A0530913B05409197
:102D50003C0550913D050E94E820CF56DF4F688327
:102D600079838A839B83C159D04060933A057093DD
:102D70003B0580933C0590933D05CB57DF4F288161
:102D800039814A815B81C558D040C757DF4F688180
:102D900079818A819B81C958D0400E94A21F4B0132
:102DA0005C0120913E0530913F05409140055091D6
:102DB00041050E94E8206B017C0160933E05709301
:102DC0003F05809340059093410520914205309145
:102DD00043054091440550914505C301B2010E944D
:102DE000E8202BE734E14EE65FE30E94A21F2B01AF
:102DF0003C0129E23CE54FE85DE3609132057091CA
:102E0000330580913405909135050E94A21F9B01E6
:102E1000AC01C301B2010E94E820609342057093A7
:102E200043058093440590934505209146053091D4
:102E300047054091480550914905C501B4010E94DC
:102E4000E8202BE734E14EE65FE30E94A21F4B012E
:102E50005C0129E23CE54FE85DE360913605709145
:102E6000370580913805909139050E94A21F9B017A
:102E7000AC01C501B4010E94E8206093460570933F
:102E80004705809348059093490520E030E044E3EE
:102E900053ECCF56DF4F688179818A819B81C1597C
:102EA000D0400E943C1F87FD10C020E030E044E38A
:102EB00053E4CF56DF4F688179818A819B81C15964
:102EC000D0400E949522181684F480914A05909172
:102ED0004B05A0914C05B0914D0580933A05909318
:102EE0003B05A0933C05B0933D0520E030E044E372
:102EF00053ECC701B6010E943C1F87FD0AC020E0C9
:102F000030E044E353E4C701B6010E94952218164D
:102F100084F4C357DF4F488159816A817B81CD5842
:102F2000D04040933E0550933F0560934005709319
:102F300041050091F7051091F805C801880F991F08
:102F4000880F991FBC0169587A4F7B01C357DF4F27
:102F5000288139814A815B81CD58D04060914A05F2
:102F600070914B0580914C0590914D050E94E82091
:102F7000D7016D937D938D939C9313970F5F1F4F94
:102F80000F7111271093F8050093F70580916005E4
:102F900090916105A0916205B09163050196A11D14
:102FA000B11D8093600590936105A0936205B09375
:102FB00063058F709927AA27BB27892B8A2B8B2B18
:102FC00029F00091520510915305E6C40E94251185
:102FD0004B015C0160916005709161058091640511
:102FE00090916505681B790B072E000C880B990BD7
:102FF0000E94431F6B017C018091580590915905F7
:10300000A0915A05B0915B05A5019401281B390BCD
:103010004A0B5B0BCA01B9010E94411F20E034E258
:1030200044E759E40E94C6219B01AC01C701B601E7
:103030000E94C621C354DF4F688379838A839B83B0
:10304000CD5BD0400E9425116093580570935905BF
:1030500080935A0590935B0580916005909161057E
:10306000A0916205B0916305809364059093650516
:10307000A0936605B0936705E0E8FE2EABEDB2E0E5
:10308000EF2D1D92EA95E9F70091F7051091F805EB
:1030900040E250E0401B510B440F551F440F551F99
:1030A000B801660F771F660F771F69587A4F8BED4F
:1030B00092E00E9437252CEF2003C001219F900D44
:1030C0001124A801440F551F440F551F67E775E0F1
:1030D000855A9C4F0E943725CD57DF4FA881B98173
:1030E000C358D0401D92FA94E9F7EBEDF2E0CB57CC
:1030F000DF4FF983E883C558D0409E012F5F3F4FD3
:10310000CC55DF4F39832883C45AD040F9010BEDE9
:1031100012E040E050E080E090E020E130E08217F3
:10312000930728F0821B930B36952795F8CF820FD3
:10313000931F4F5F5F4F4F31510509F441C048174E
:103140005907D0F59C01220F331F220F331FB901FD
:1031500065527D4FD8011496CD90DD90ED90FC9096
:103160001797DB018D909D90AD90BC90D80114967F
:103170008D929D92AD92BC921797DB01CD92DD921C
:10318000ED92FC92139761E070E06C0F7D1F260FAB
:10319000371FC480D580E680F780D9018D909D903F
:1031A000AD90BC90139784829582A682B782CD920F
:1031B000DD92ED92FC9213970C5F1F4F3496ADCFCA
:1031C000C056DF4F188219821A821B82C05AD04023
:1031D000412C512C50E8652E5FEB752EC356DF4F06
:1031E0001882CD59D04081E0B82FBB0FC855DF4FB2
:1031F000B883C85AD040EB2FF0E0C755DF4FF983B2
:10320000E883C95AD040EE0FFF1FEE0FFF1FC555D0
:10321000DF4FF983E883CB5AD040282F30E0C355E5
:10322000DF4F39832883CD5AD040220F331F220F1E
:10323000331FCF54DF4F39832883C15BD040CB5637
:10324000DF4F19821882C559D040CF56DF4F188200
:1032500019821A821B82C159D040212C312C00E8DE
:103260001FE3C956DF4F19821882C759D040C9568B
:10327000DF4F28813981C759D040C355DF4F48817E
:103280005981CD5AD0402417350708F0ACC1CB5630
:10329000DF4F68817981C559D04065527D4FC35752
:1032A000DF4F79836883CD58D04081E090E08C0F68
:1032B0009D1FCB56DF4FA881B981C559D0408A0FD9
:1032C0009B1FC757DF4F99838883C958D040C25688
:1032D000DF4F39832883CE59D040C256DF4F8881D3
:1032E0009981CE59D040809708F018C1C357DF4F5D
:1032F00048815981CD58D040CF54DF4F68817981C2
:10330000C15BD040460F571FCA55DF4F59834883D2
:10331000C65AD040DA018D909D90AD90BC90C757B1
:10332000DF4FE881F981C958D040E60FF71FC1553A
:10333000DF4FF983E883CF5AD04020813181428129
:103340005381C756DF4F288339834A835B83C9592A
:10335000D040A5019401B101C8010E94A21F6B01D8
:103360007C01C756DF4F288139814A815B81C95969
:10337000D040CF56DF4F688179818A819B81C159C6
:10338000D0400E94A21F9B01AC01C701B6010E9460
:10339000E7206B017C01C756DF4F288139814A81C4
:1033A0005B81C959D040B101C8010E94A21FC75614
:1033B000DF4F688379838A839B83C959D040A501F5
:1033C0009401CF56DF4F688179818A819B81C159F1
:1033D000D0400E94A21F9B01AC01C756DF4F6881FD
:1033E00079818A819B81C959D0400E94E8204B0194
:1033F0005C01A7019601C357DF4FE881F981CD58E1
:10340000D04060817181828193810E94E720CA55FA
:10341000DF4FA881B981C65AD0406D937D938D93BB
:103420009C931397A5019401C757DF4FE881F98159
:10343000C958D04060817181828193810E94E720C8
:10344000C155DF4FA881B981CF5AD0406D937D938C
:103450008D939C931397A7019601C357DF4FE88183
:10346000F981CD58D04060817181828193810E9421
:10347000E820C357DF4FA881B981CD58D0406D9364
:103480007D938D939C931397A5019401C757DF4FAC
:10349000E881F981C958D04060817181828193812E
:1034A0000E94E820C757DF4FA881B981C958D04092
:1034B0006D937D938D939C931397C256DF4FE88154
:1034C000F981CE59D040C755DF4F28813981C95A7B
:1034D000D040E20FF31FC256DF4FF983E883CE5985
:1034E000D040C357DF4F48815981CD58D040C55592
:1034F000DF4F68817981CB5AD040460F571FC357A1
:10350000DF4F59834883CD58D040A60FB71FC75708
:10351000DF4FB983A883C958D040DFCEA301920101
:10352000B101C8010E94A21F6B017C01C056DF4F90
:10353000288139814A815B81C05AD040CF56DF4F04
:10354000688179818A819B81C159D0400E94A21FE4
:103550009B01AC01C701B6010E94E7206B017C0111
:10356000A3019201CF56DF4F688179818A819B81C7
:10357000C159D0400E94A21F4B015C01C056DF4FD1
:10358000288139814A815B81C05AD040B101C8018C
:103590000E94A21FA50194010E94E820CF56DF4F90
:1035A000688379838A839B83C159D040C956DF4F92
:1035B000A881B981C759D0401196C956DF4FB98348
:1035C000A883C759D040CB56DF4FE881F981C55950
:1035D000D0403496CB56DF4FF983E883C559D040AD
:1035E0001601870144CEA301920160E070E080E8FB
:1035F0009FE30E94E72020E030E040E05FE30E948C
:10360000A21F0E94A8229B01AC015058C056DF4F58
:10361000288339834A835B83C05AD04020E030E05E
:1036200040E85FE3C301B2010E94E82020E030E0FF
:1036300040E05FE30E94A21F0E94A8222B013C01F0
:10364000C356DF4F3881CD59D0403F5FC356DF4F5F
:103650003883CD59D040C855DF4F8881C85AD040F3
:10366000353009F0C1CD0BED12E0B3E00B351B078F
:1036700081F1D8016D917D918D919C91CC55DF4F59
:10368000E881F981C45AD040C190D190E190F19085
:10369000CC55DF4FF983E883C45AD0409B01AC017D
:1036A0000E94A21F4B015C01A7019601C701B60150
:1036B0000E94A21F9B01AC01C501B4010E94E82039
:1036C0000E94A822D8016D937D938D939D938D01C7
:1036D000CCCFA12CB12C912C812C712C612C01E030
:1036E00010E0CB57DF4FE881F981C558D040619198
:1036F000719181919191CB57DF4FF983E883C55840
:10370000D040C080D180E280F3809601A7010E9462
:103710003C1F87FF21C0CB57DF4FA881B981C55817
:10372000D04014962D913D914D915C911797B60123
:10373000C7010E94952218167CF4292D382D472D9B
:10374000562DB601C7010E94952218162CF4580177
:103750009C2C8D2C7E2C6F2C0F5F1F4F0F30110572
:1037600009F0BFCF85010150104C000F111F000F51
:10377000111FF801E552FD4FC080D180E280F38037
:10378000F801ED51FD4F4080518062807380B5019A
:1037900080E090E00E94411F4B015C01A301920177
:1037A000C701B6010E94E720CB57DF4F68837983BA
:1037B0008A839B83C558D040F801E152FD4F608158
:1037C0007181828193819B01AC010E94E8209B0161
:1037D000AC01C701B6010E94E720A30192010E943B
:1037E000E8209B01AC01CB57DF4F688179818A814A
:1037F0009B81C558D0400E94C62120E030E040E0C7
:103800005FE30E94A21F9B01AC01C501B4010E94AD
:10381000E820C354DF4F288139814A815B81CD5B29
:10382000D0400E94A21F20E030E048EF51E40E9407
:10383000C62120E030E040E752E40E94A21F6B0165
:103840007C0187E392E00E94EE0DA7019601C7017B
:10385000B6010E94EC22882319F084E492E01AC099
:1038600046015701E894B7F82FEF3FEF4FE75FE7C6
:10387000C501B4010E94EC2281110FC02FEF3FEF70
:103880004FE75FE7C501B4010E943C1F18162CF4F6
:1038900088E492E00E945F0D72C02FEF3FEF4FE788
:1038A0005FE4C701B6010E94952218161CF48CE44F
:1038B00092E0F0CF2FEF3FEF4FE75FECC701B6018B
:1038C0000E943C1F87FDF3CF20E030E0A901C70133
:1038D000B6010E943C1F87FF07C08DE20E94B20D17
:1038E000C701B601905802C0C701B6012AE037ED02
:1038F00043EA5BE30E94E8202B013C010E943F2247
:103900004B015C010E94411F9B01AC01C301B2014C
:103910000E94E7202B013C014AE0C501B4010E944E
:10392000710D8EE20E94B20D20E030E040E251E4E1
:10393000C301B2010E94A21F4B015C010E943F2201
:103940002B01612C712C4AE0C301B2010E94710D60
:10395000C301B2010E94411F9B01AC01C501B4012A
:103960000E94E72020E030E040E251E40E94A21FE4
:103970000E943F2280E090E04AE00E94710D83E1C6
:1039800092E00E945F0DC701B6010E9438228B01B0
:103990007093530560935205CD54DF4F4881598190
:1039A000C35BD04067E070E083E496E00E94AC0621
:1039B000CB54DF4F48815981C55BD04068E070E04F
:1039C00083E496E00E94AC06C954DF4F48815981D8
:1039D000C75BD04069E070E083E496E00E94AC06EB
:1039E000C754DF4F48815981C95BD0406AE070E01D
:1039F00083E496E00E94AC06C554DF4F48815981AC
:103A0000CB5BD0406BE070E083E496E00E94AC06B4
:103A1000A80166E070E083E496E00E94AC060E9494
:103A200089010C94BA140F931F93CF93DF931092D4
:103A3000D3031092D20388EE93E0A0E0B0E080932D
:103A4000D4039093D503A093D603B093D70323E573
:103A500031E03093D1032093D00325EC30E0309354
:103A6000DD032093DC0324EC30E03093DF0320936C
:103A7000DE0320EC30E03093E1032093E00321ECFF
:103A800030E03093E3032093E20322EC30E0309304
:103A9000E5032093E40326EC30E03093E703209322
:103AA000E6031092E9031092EA031092EB031092DE
:103AB000EC031092700410926F0480937104909341
:103AC0007204A0937304B093740483E691E090931E
:103AD0006E0480936D0410923E0610923D06109283
:103AE000400610923F061092420610924106EDEFFA
:103AF000F5E088EC90E09183808313821282349603
:103B000026E0ED33F207B9F710928406109283068F
:103B100010928606109285061092880610928706EB
:103B2000E3E4F6E088EC90E09183808313821282D4
:103B3000349626E0E338F207B9F710928A0610921D
:103B4000890610922C0710922B0781E090E0909349
:103B5000FA058093F9058FE190E00E943B23EC0188
:103B60001B821A8288EE93E0A0E0B0E08C839D83F4
:103B7000AE83BF8383E791E0998388831F8A1E8A7F
:103B8000198E188E1B8E1A8E1D8E1C8E6E8D6E7F5A
:103B90006D7F6E8F6695617081E0682787E00E9477
:103BA000A21061E087E00E94D210EDE0F1E0E49124
:103BB000E88BE9EFF0E0E491F0E0EE0FFF1FE25256
:103BC000FF4F859194919A8B898B60E086E00E94EB
:103BD000D2108E8D81FD04C061E086E00E94A210AB
:103BE00086E08C87ECE0F1E0E491ED87E8EFF0E02F
:103BF000E491F0E0EE0FFF1FE851FF4F85919491A3
:103C00009F878E87D093FC05C093FB058DE991E0DB
:103C10009D8F8C8F2DEB30E03F8B2E8B2BE931E08D
:103C2000398F288F2CE231E03B8F2A8F209168005A
:103C30002460209368002DE630E03C8B2B8B20E441
:103C40002D8B0197F1F78A8D9B8D892B09F1E091DE
:103C50007B04F0917C04EC17FD07D1F0309739F02C
:103C6000A389B4899C918589809589238C938E8DB5
:103C70008E7F8E8F10927A0410927904D0937C04F8
:103C8000C0937B04EB89FC8990818D89892B80838B
:103C90000FE612E123E83AE30093A7041093A80487
:103CA0002093A9043093AA0446EA5BE964E47BE329
:103CB0004093AB045093AC046093AD047093AE0496
:103CC0008FE892ECA5EFBCE38093AF049093B0042F
:103CD000A093B104B093B2041092B3041092B40450
:103CE0001092B5041092B6041092B7041092B80462
:103CF0001092B9041092BA041092BF041092C0043A
:103D00001092C1041092C2041092C3041092C40411
:103D10001092C5041092C6041092C7041092C804F1
:103D20001092C9041092CA041092CB041092CC04D1
:103D30001092CD041092CE040093DF041093E0049F
:103D40002093E1043093E2044093E3045093E404AD
:103D50006093E5047093E6048093E7049093E8048D
:103D6000A093E904B093EA041092EB041092EC04DF
:103D70001092ED041092EE041092EF041092F004F1
:103D80001092F1041092F2041092F7041092F804C9
:103D90001092F9041092FA041092FB041092FC04A1
:103DA0001092FD041092FE041092FF041092000580
:103DB000109201051092020510920305109204055D
:103DC000109205051092060588E68093170510925B
:103DD00060051092610510926205109263051092C1
:103DE00064051092650510926605109267051092A1
:103DF000F8051092F7051092A2041092A1041092F7
:103E0000A4041092A30410929404109293041092AC
:103E100096041092950410929804109297041092B0
:103E20009A041092990410929B0410929C04109290
:103E30009D0410929E0410928E0410928D04109294
:103E4000900410928F0410928804109287041092AC
:103E50008A041092890410928204109281041092B4
:103E600084041092830410927E0410927D04DF91EA
:103E7000CF911F910F9108950E947E1F08F481E059
:103E80000895E89409C097FB3EF49095809570954D
:103E900061957F4F8F4F9F4F9923A9F0F92F96E996
:103EA000BB279395F695879577956795B795F1110B
:103EB000F8CFFAF4BB0F11F460FF1BC06F5F7F4FA8
:103EC0008F4F9F4F16C0882311F096E911C07723BA
:103ED00021F09EE8872F762F05C0662371F096E8C3
:103EE000862F70E060E02AF09A95660F771F881F92
:103EF000DAF7880F9695879597F90895990F000836
:103F0000550FAA0BE0E8FEEF16161706E807F907AB
:103F1000C0F012161306E407F50798F0621B730B46
:103F2000840B950B39F40A2661F0232B242B252BC7
:103F300021F408950A2609F4A140A6958FEF811D6A
:103F4000811D08950E94B51F0C9426200E94182000
:103F500038F00E941F2020F0952311F00C940F20C0
:103F60000C94152011240C945A200E94372070F3D1
:103F7000959FC1F3950F50E0551F629FF001729F0E
:103F8000BB27F00DB11D639FAA27F00DB11DAA1F1D
:103F9000649F6627B00DA11D661F829F2227B00D6A
:103FA000A11D621F739FB00DA11D621F839FA00DF5
:103FB000611D221F749F3327A00D611D231F849F45
:103FC000600D211D822F762F6A2F11249F5750409C
:103FD0009AF0F1F088234AF0EE0FFF1FBB1F661F17
:103FE000771F881F91505040A9F79E3F510580F0E0
:103FF0000C940F200C945A205F3FE4F3983ED4F3C6
:10400000869577956795B795F795E7959F5FC1F783
:10401000FE2B880F911D9695879597F9089597F92E
:104020009F6780E870E060E008959FEF80EC08955E
:1040300000240A9416161706180609060895002487
:104040000A9412161306140605060895092E039401
:10405000000C11F4882352F0BB0F40F4BF2B11F475
:1040600060FF04C06F5F7F4F8F4F9F4F089557FDD4
:104070009058440F551F59F05F3F71F04795880FD6
:1040800097FB991F61F09F3F79F08795089512166D
:1040900013061406551FF2CF4695F1DF08C0161619
:1040A00017061806991FF1CF8695710561050894CA
:1040B0000895E894BB2766277727CB0197F90895E1
:1040C000052E97FB1EF400940E94772057FD07D021
:1040D0000E94B62007FC03D04EF40C947720509534
:1040E0004095309521953F4F4F4F5F4F08959095E4
:1040F0008095709561957F4F8F4F9F4F08952F92B8
:104100003F924F925F926F927F928F929F92AF9267
:10411000BF92CF92DF92EF92FF920F931F93CF93B4
:10412000DF93CDB7DEB7CA1BDB0B0FB6F894DEBF4B
:104130000FBECDBF09942A88398848885F846E8471
:104140007D848C849B84AA84B984C884DF80EE80BB
:10415000FD800C811B81AA81B981CE0FD11D0FB6C4
:10416000F894DEBF0FBECDBFED010895A1E21A2E77
:10417000AA1BBB1BFD010DC0AA1FBB1FEE1FFF1F0B
:10418000A217B307E407F50720F0A21BB30BE40B5B
:10419000F50B661F771F881F991F1A9469F76095A2
:1041A0007095809590959B01AC01BD01CF0108955C
:1041B000A29FB001B39FC001A39F700D811D112468
:1041C000911DB29F700D811D1124911D08955058AD
:1041D000BB27AA270E94FF200C9426200E941820AB
:1041E00038F00E941F2020F039F49F3F19F426F484
:1041F0000C9415200EF4E095E7FB0C940F20E92FAA
:104200000E94372058F3BA1762077307840795078F
:1042100020F079F4A6F50C9459200EF4E0950B2EBD
:10422000BA2FA02D0B01B90190010C01CA01A00108
:104230001124FF27591B99F0593F50F4503E68F163
:104240001A16F040A22F232F342F4427585FF3CFA4
:10425000469537952795A795F0405395C9F77EF475
:104260001F16BA0B620B730B840BBAF09150A1F0BE
:10427000FF0FBB1F661F771F881FC2F70EC0BA0F44
:10428000621F731F841F48F4879577956795B795CC
:10429000F7959E3F08F0B0CF9395880F08F09927C7
:1042A000EE0F9795879508950E94182060F080E89A
:1042B00091E009F49EEF0E941F2028F040E851E0B1
:1042C00071F45EEF0CC00C9415200C945920E92F6A
:1042D000E0780E94372040F3092E052AB1F3261713
:1042E00037074807590738F00E2E07F8E02569F020
:1042F000E025E0640AC0EF6307F8009407FADB01E9
:10430000B9019D01DC01CA01AD01EF930E94DD21DD
:104310000E9426200E9497215F91552339F02BEDB2
:104320003FE049E450FD49EC0C94E8200895DF9308
:10433000DD27B92FBF7740E85FE316161706480759
:104340005B0718F4D92F0E949A229F938F937F9333
:104350006F930E94E822E8E6F0E00E946E220E943D
:1043600026202F913F914F915F910E94B51FDD2331
:1043700051F09058A2EA2AED3FE049EC5FE3D07893
:104380005D270E94FF20DF910C9426200E94DA21F5
:104390000C9426200E941F2058F00E94182040F004
:1043A00029F45F3F29F00C940F2051110C945A20EE
:1043B0000C9415200E94372068F39923B1F35523FC
:1043C00091F3951B550BBB27AA2762177307840728
:1043D00038F09F5F5F4F220F331F441FAA1FA9F3BE
:1043E00035D00E2E3AF0E0E832D091505040E695AC
:1043F000001CCAF72BD0FE2F29D0660F771F881F0D
:10440000BB1F261737074807AB07B0E809F0BB0BFF
:10441000802DBF01FF2793585F4F3AF09E3F510513
:1044200078F00C940F200C945A205F3FE4F3983EF0
:10443000D4F3869577956795B795F7959F5FC9F7FC
:10444000880F911D9695879597F90895E1E0660F7D
:10445000771F881FBB1F621773078407BA0720F0F6
:10446000621B730B840BBA0BEE1F88F7E09508955F
:104470000E943F226894B1110C945A2008950E9422
:104480003F2088F09F5798F0B92F9927B751B0F087
:10449000E1F0660F771F881F991F1AF0BA95C9F7C8
:1044A00014C0B13091F00E945920B1E008950C94ED
:1044B0005920672F782F8827B85F39F0B93FCCF3A0
:1044C000869577956795B395D9F73EF49095809545
:1044D000709561957F4F8F4F9F4F0895DF93CF93D6
:1044E0001F930F93FF92EF92DF927B018C016894F0
:1044F00006C0DA2EEF010E94B51FFE01E894A591D7
:104500002591359145915591A6F3EF010E94FF2029
:10451000FE019701A801DA9469F7DF90EF90FF9010
:104520000F911F91CF91DF9108950E947E1F08F493
:104530008FEF08959B01AC0160E070E080E89FE39D
:104540000C94C62119F416F40C9415200C94F12245
:104550000E943F20B8F39923C9F3B6F39F57550B38
:1045600087FF0E94FF220024A0E640EA90018058C5
:104570005695979528F4805C660F771F881F20F06A
:1045800026173707480730F4621B730B840B20296A
:1045900031294A2BA69517940794202531254A27BF
:1045A00058F7660F771F881F20F026173707480730
:1045B00030F4620B730B840B200D311D411DA0954F
:1045C00081F7B901842F9158880F969587950895A2
:1045D0009B01AC010C94A21F0E947E1F880B990BBB
:1045E00008959F3F31F0915020F487957795679516
:1045F000B795880F911D9695879597F908959150D5
:104600005040660F771F881FD2F70895AA1BBB1B67
:1046100051E107C0AA1FBB1FA617B70710F0A61BC2
:10462000B70B881F991F5A95A9F780959095BC01E3
:10463000CD01089597FB072E16F4009407D077FD5F
:1046400009D00E94062307FC05D03EF49095819581
:104650009F4F0895709561957F4F08950E94D820CF
:10466000B7FF0895821B930B0895EE0FFF1F05906F
:10467000F491E02D0994CF93DF938230910510F4EB
:1046800082E090E0E0913907F0913A0720E030E0D5
:10469000C0E0D0E0309711F14081518148175907AF
:1046A000C0F04817590761F482819381209719F06F
:1046B0009B838A832BC090933A078093390726C047
:1046C0002115310519F04217530718F49A01BE015C
:1046D000DF01EF010280F381E02DDCCF21153105F0
:1046E00009F1281B390B2430310590F412968D9175
:1046F0009C9113976115710521F0FB0193838283CF
:1047000004C090933A0780933907FD01329644C064
:10471000FD01E20FF31F81939193225031092D93F4
:104720003C933AC02091370730913807232B41F44E
:1047300020914A0130914B0130933807209337077D
:1047400020914801309149012115310541F42DB7DF
:104750003EB740914C0150914D01241B350BE09127
:104760003707F0913807E217F307A0F42E1B3F0B31
:104770002817390778F0AC014E5F5F4F24173507D3
:1047800048F04E0F5F1F50933807409337078193CF
:10479000919302C0E0E0F0E0CF01DF91CF91089566
:1047A0000F931F93CF93DF93009709F48CC0FC0104
:1047B0003297138212820091390710913A0701153E
:1047C000110581F420813181820F931F20913707D9
:1047D000309138072817390779F5F0933807E093B7
:1047E000370771C0D80140E050E0AE17BF0750F462
:1047F00012962D913C911397AD012115310509F1C8
:10480000D901F3CF9D01DA01338322836081718165
:10481000860F971F8217930769F4EC01288139816D
:10482000260F371F2E5F3F4F318320838A819B8164
:1048300093838283452B29F4F0933A07E093390759
:1048400042C01396FC93EE931297ED014991599152
:104850009E01240F351FE217F30771F480819181C7
:10486000840F951F029611969C938E93828193815B
:1048700013969C938E931297E0E0F0E0D801129685
:104880008D919C911397009719F0F8018C01F6CF48
:104890008D919C9198012E5F3F4F820F931F209125
:1048A0003707309138072817390769F4309729F40A
:1048B00010923A071092390702C0138212821093A5
:1048C000380700933707DF91CF911F910F9108951B
:1048D000A0E0B0E0EEE6F4E20C948320EC01009757
:1048E00021F4CB010E943B23B8C0FC01E60FF71F67
:1048F0009C0122503109E217F30708F4ACC0D9013A
:104900000D911C91119706171707B0F0053011058E
:1049100008F49FC0C80104978617970708F499C048
:1049200002501109061B170B019311936D937C9391
:10493000CF010E94D0238DC05B01A01AB10A4C01A7
:10494000800E911EA0913907B0913A0740E050E0E7
:10495000E12CF12C109709F44AC0A815B905D1F53E
:104960006D907C901197630182E0C80ED11CCA142F
:10497000DB0480F1A3014A195B096A0182E0C80ED9
:10498000D11C1296BC9012971396AC91B5E0CB1641
:10499000D10440F0B282A38351834083D9016D9347
:1049A0007C930AC00E5F1F4FC301800F911FF90156
:1049B00091838083EB2DFA2FE114F10431F0D701BC
:1049C0001396FC93EE93129744C0F0933A07E0934A
:1049D00039073FC08D919C9111974817590708F4EA
:1049E000AC017D0112960D90BC91A02DB3CF8091AA
:1049F00037079091380788159905E1F4461757074E
:104A0000C8F48091480190914901009741F48DB715
:104A10009EB740914C0150914D01841B950BE817B6
:104A2000F907C8F4F0933807E0933707F901718369
:104A300060830FC0CB010E943B237C01009759F09B
:104A4000A801BE010E943725CE010E94D023C701D4
:104A500004C0CE0102C080E090E0CDB7DEB7EEE04A
:104A60000C949F2081E090E0F8940C944725FB0182
:104A7000DC0102C001900D9241505040D8F70895DA
:104A8000FB01DC0101900D920020E1F70895F894FC
:024A9000FFCF56
:104A9200C40100000400C3AD600042120000000027
:104AA20000000000000000000000000000000019EB
:104AB2002A11B0422A11B831C0002A91940000A8EC
:104AC200C400F7CF1214806F46080086066100000A
:104AD200109E23C804060E1C00003B078000010044
:104AE20000000020014E10E900C700DB0067010052
:104AF2000000002102F101E901D501C601C5010052
:104B020000000069024E10BD02D502500268027315
:104B1200657474696E6720766F6C756D653A2000F6
:104B2200737461727420706C6179696E6700736569
:104B3200742062706D207768696C6520706175738E
:104B420065643A200073746F7020706C6179696ECD
:104B520067006E65787420736F6E673A200070721A
:104B6200657620736F6E673A2000736574206270F9
:104B72006D3A2000747261636B3A2000736574743D
:104B8200696E672062706D3A200062706D206175F7
:104B9200746F206D6F6465006175746F2062706D53
:104BA2003A20000D0A002D2D2D2D2D2D2D2D2D2DD0
:104BB2002D2D2D2D2D2D2D2D2D2D2D2D2D2D2D2D23
:104BC2002D2D2D2D2D2D00202D20494D55204250CB
:104BD2004D3A20006E616E00696E66006F76660067
:00000001FF
