:100000000C9462000C948A000C948A000C94FC05F9
:100010000C94FC050C94FC050C948A000C948A004A
:100020000C948A000C948A000C948A000C948A0028
:100030000C948A000C948A000C948A000C948A0018
:100040000C94100A0C948A000C949C040C94760472
:100050000C948A000C948A000C948A000C948A00F8
:100060000C94CE040C948A000000000024002700A9
:100070002A0000000008000201000003040700003D
:1000800000000000000000000000250028002B00F8
:1000900000000000230026002900040404040404D6
:1000A0000404020202020202030303030303010227
:1000B00004081020408001020408102001020408F6
:1000C0001020561011241FBECFEFD8E0DEBFCDBFE9
:1000D00012E0A0E0B1E0E4E3FDE202C005900D9281
:1000E000AE31B107D9F725E0AEE1B2E001C01D9213
:1000F000A733B207E1F710E0C2E6D0E004C02197D1
:10010000FE010E948614C136D107C9F70E945F0D17
:100110000C9498160C940000FC01918D828D981718
:1001200061F0828DDF01A80FB11D5D968C91928DDB
:100130009F5F9F73928F90E008958FEF9FEF0895D8
:10014000FC01918D828D981731F0828DE80FF11DA1
:10015000858D90E008958FEF9FEF0895FC01918DBC
:10016000228D892F90E0805C9F4F821B91098F73B5
:100170009927089586E293E00E94AE0021E0892B42
:1001800009F420E0822F0895FC01848DDF01A80F7F
:10019000B11DA35ABF4F2C91848D90E001968F73AF
:1001A0009927848FA689B7892C93A089B1898C91CE
:1001B00080648C93938D848D981306C00288F38994
:1001C000E02D80818F7D80830895EF92FF920F93C1
:1001D0001F93CF93DF93EC0181E0888F9B8D8C8DF3
:1001E000981305C0E889F989808185FD24C0F62E21
:1001F0000B8D10E00F5F1F4F0F731127E02E8C8DBA
:10020000E8120CC00FB607FCFACFE889F9898081A3
:1002100085FFF5CFCE010E94C400F1CF8B8DFE018A
:10022000E80FF11DE35AFF4FF0820B8FEA89FB893B
:100230008081806207C0EE89FF896083E889F9893F
:1002400080818064808381E090E0DF91CF911F9175
:100250000F91FF90EF900895CF93DF93EC01888D7D
:100260008823C9F0EA89FB89808185FD05C0A889BA
:10027000B9898C9186FD0FC00FB607FCF5CF808140
:1002800085FFF2CFA889B9898C9185FFEDCFCE018A
:100290000E94C400E7CFDF91CF91089580E090E005
:1002A000892B29F00E94BA0081110C940000089556
:1002B00085ED8093BC008091BC0084FDFCCF109242
:1002C000020308954091A002262F30E0240F311D33
:1002D00021323105DCF4209102032430C9F4FC0101
:1002E00080E090E0861758F43091A0022191DC0163
:1002F000A258BD4FA30FB11D2C930196F3CF80914F
:10030000A002680F6093A00280E0089581E0089544
:1003100082E008950895E091C6028091C502E81731
:1003200030F4F0E0E25AFD4F808190E008958FEFC5
:100330009FEF08959091C6028091C502981750F4DE
:10034000E92FF0E0E25AFD4F208130E09F5F90936B
:10035000C60202C02FEF3FEFC90108958091C50288
:1003600090E02091C602821B91090895CF92DF92FE
:10037000EF92FF920F931F93CF93DF937C01262F71
:10038000972F8A0180912503882391F0C62FD72FBC
:100390006E01C40ED51ECC15DD0571F06991D70133
:1003A000ED91FC910190F081E02DC7010995F3CF0B
:1003B000642F822F0E946201C801DF91CF911F91AB
:1003C0000F91FF90EF90DF90CF900895CF93DF9340
:1003D0001F92CDB7DEB76983209125032223D1F088
:1003E00020912303203240F021E030E0FC013383F0
:1003F000228380E090E015C080912403E82FF0E094
:10040000ED5FFC4F998190838F5F809324038093ED
:10041000230305C061E0CE0101960E94620181E0E4
:1004200090E00F90DF91CF9108952091D10330910A
:10043000D2032817390771F49091CF038091D0032C
:10044000981741F0E091CF03F0E0E25EFD4F80812C
:1004500090E008958FEF9FEF089508951F93CF9335
:10046000DF93DC015C962D913C915D972115310560
:1004700039F481E090E013969C938E9312973DC0DF
:100480005196ED91FC91529750969C915097892FDF
:1004900080951FB75E964C915E9741FB772770F968
:1004A00041FD6095F8944081772311F0492B01C0FC
:1004B00048234083E9012197F1F748E0508160FF2C
:1004C00002C0592B01C058235083E9012197F1F74D
:1004D0006695415099F7772321F090818923808395
:1004E00003C08081982B90831FBF5C968D919C9157
:1004F0005D970197F1F721E030E0C901DF91CF91DD
:100500001F9108952091D1033091D2032817390704
:1005100071F48091D0032091CF0390E0805C9F4FD5
:10052000821B910960E470E00E946B14089580E0E2
:1005300090E008952091D1033091D2032817390714
:10054000B9F49091CF038091D003981789F0E0918E
:10055000CF03F0E0E25EFD4F80812091CF0330E0D9
:100560002F5F3F4F2F7333272093CF0390E00895E1
:100570008FEF9FEF08950E9483160F931F93CF93E1
:10058000DF93CDB7DEB728970FB6F894DEBF0FBE66
:10059000CDBF8091F3039091F403009719F0019778
:1005A00041F098C081E090E09093F4038093F303CE
:1005B00091C0072E000C880B990B0E94C21120E0FD
:1005C00030E040E853E40E94FD1120E030E849E2C9
:1005D00054E40E94AF1320E030E040E85FE30E9463
:1005E00042130E9421146F3F710519F014F06FEF50
:1005F00070E08B0177FF02C000E010E08EE791E031
:100600000E94F60BC8010E94080C8091FD03909196
:10061000FE038130910589F18230910509F446C0CD
:10062000892B09F057C02FE030E0D8010E947F14D9
:100630002FEF30E040E050E00E94BB12A2EDB2E0AC
:10064000FE013196BF018D91819382E0AA3DB807EA
:10065000D1F78091D902807F282B28878C818F7ECB
:100660008C8348E050E080E00E94FB0A62E370E087
:1006700080E090E00E94CA092DC019821A821B8274
:100680001C8286E089832EE130E0D8010E947F142D
:100690002FEF30E040E050E00E94BB122C836AE074
:1006A00070E0CE0101960E949A0A14C087EA8983FD
:1006B0002FE130E0D8010E947F142FEF30E040E0BE
:1006C00050E00E94BB122A83BE016F5F7F4F83E020
:1006D0000E945A0A28960FB6F894DEBF0FBECDBF0F
:1006E000DF91CF911F910F910895CF92DF92EF92FA
:1006F000FF920F931F93CF93DF9300D000D0CDB71D
:10070000DEB77C018B01C090F703D090F80381E045
:10071000C816D10449F082E0C816D10409F44FC0CC
:10072000CD2809F0D6C076C0E114F10461F58FE858
:1007300091E00E94A00C8091F9039091FA030E942D
:10074000B90B8091FD039091FE038130910549F032
:100750008230910589F0892B79F480E00E948A0C1F
:100760000BC08DE089831A821B821C826AE070E0D4
:10077000CE0101960E949A0A82E090E09093F803DD
:100780008093F703A6C083E0E816F10409F0A1C046
:100790008DE991E00E94F60BC8010E94080CC80187
:1007A0008C5891096AE070E00E946B14660F771F05
:1007B0006F5F7F4F7093FA036093F9038AC0E1146F
:1007C000F10459F584EB91E00E94A00C8091FD03A7
:1007D0009091FE038130910549F08230910591F0AE
:1007E000892BC1F481E00E948A0C14C08EE08983B9
:1007F0001A821B821C826AE070E0CE0101960E9480
:100800009A0A08C083EA8983BE016F5F7F4F82E046
:100810000E945A0A81E090E0B1CF81E0E816F1042D
:1008200059F481EC91E00E94F60B2091F90330918C
:10083000FA03C901B6010EC082E0E816F10421F501
:100840008DEC91E00E94F60B2091F9033091FA03B0
:10085000C901B7010E946B14019719F42F5F3F4F34
:1008600002C0215031093093FA032093F90380919B
:10087000F9039091FA030E94080C8091F90390917A
:10088000FA030E94B90B25C083E0E816F10409F5CC
:1008900089ED91E00E94F60BC8010E94080CC80186
:1008A0008C5891096AE070E00E946B148B01000F74
:1008B000111F0F5F1F4F83EE91E00E94F60BC801DE
:1008C0000E94080CC8010E94B90B1093FA03009310
:1008D000F9030F900F900F900F90DF91CF911F9120
:1008E0000F91FF90EF90DF90CF9008951F920F929D
:1008F0000FB60F9211242F933F934F935F936F93F3
:100900007F938F939F93AF93BF93EF93FF9386E271
:1009100093E00E94C400FF91EF91BF91AF919F912E
:100920008F917F916F915F914F913F912F910F9098
:100930000FBE0F901F9018951F920F920FB60F9237
:1009400011242F938F939F93EF93FF93E09136039E
:10095000F09137038081E0913C03F0913D0382FDEB
:1009600012C0908180913F038F5F8F73209140036D
:10097000821751F0E0913F03F0E0EA5DFC4F958F64
:1009800080933F0301C08081FF91EF919F918F91F0
:100990002F910F900FBE0F901F9018951F920F92DE
:1009A0000FB60F9211242F933F934F935F936F9342
:1009B0007F938F939F93AF93BF93EF93FF93809118
:1009C000B900887F803609F49CC068F5883209F444
:1009D0005BC090F4803109F454C038F4882309F4E2
:1009E000F6C0883009F44DC0F6C0883109F44CC017
:1009F000803209F45DC0EFC0803409F468C048F467
:100A0000803309F455C0883309F0E5C080930003B2
:100A1000D8C0803509F44FC0883509F45DC08834EA
:100A200009F0D9C0D6C0883909F4C7C0A8F48837FE
:100A300009F467C038F4883609F463C0803709F4D4
:100A400060C0C9C0883809F4B8C0803909F45FC0F3
:100A5000803809F0C0C05BC0803B09F486C038F420
:100A6000803A09F466C0883A09F47FC0B4C0803C7B
:100A700009F4A7C0883C09F4A4C0883B09F48AC0E3
:100A8000AAC08091DD0210C09091FF028091FE0209
:100A9000981770F5E091FF0281E08E0F8093FF02BE
:100AA000F0E0E252FD4F80818093BB0085EC86C070
:100AB000809300038EC0E091FF0281E08E0F80934F
:100AC000FF028091BB00F0E0E252FD4F80839091E5
:100AD000FF028091FE026EC0E091FF0281E08E0F66
:100AE0008093FF028091BB00F0E0E252FD4F8083D3
:100AF0008091010381116DC081E08093DC0284EA62
:100B000061C083E0809302031092C402CFCF809132
:100B1000C402803208F051C0E091C40281E08E0F1F
:100B20008093C4028091BB00F0E0EC55FD4F8083C0
:100B3000BDCF85EC8093BC00109202038091C4026B
:100B4000803230F4E091C402F0E0EC55FD4F1082A9
:100B50006091C40270E0E091A202F091A30284EAE5
:100B600092E009951092C40236C084E0809302039B
:100B70001092A1021092A002E0919E02F0919F02B9
:100B800009958091A002811105C081E08093A002A7
:100B900010927E02E091A10281E08E0F8093A1026B
:100BA000F0E0E258FD4F80818093BB009091A1025C
:100BB0008091A002981708F479CF85E88093BC0053
:100BC0000AC085EC8093BC001092020304C010920E
:100BD00000030E945801FF91EF91BF91AF919F9147
:100BE0008F917F916F915F914F913F912F910F90D6
:100BF0000FBE0F901F9018951F920F920FB60F9275
:100C000011242F933F934F935F936F937F938F9311
:100C10009F93AF93BF93EF93FF93E091D103F09134
:100C2000D203309709F451C0968DA685B785858586
:100C300091FF04C09C91892329F447C09C9189238A
:100C400009F043C0A389B4899C9185898095892343
:100C50008C93868997890197F1F7608D718DA685B0
:100C6000B785558538E020E0CB010197F1F7822F59
:100C700090E095958795282F4C91452309F02068A1
:100C8000315091F7868D81FD20958091D00390E0C1
:100C900001968F7399273091CF03381749F0A091AF
:100CA000D003B0E0A25EBD4F2C938093D00303C06D
:100CB000868D8160868F828D938D0197F1F7A38950
:100CC000B4899C918589892B8C93FF91EF91BF9179
:100CD000AF919F918F917F916F915F914F913F91D4
:100CE0002F910F900FBE0F901F901895EF92FF92CB
:100CF0000F931F93CF93CFB7C078F8948C010C5B00
:100D00001F4FD8012D913C912031310529F17C01F3
:100D1000B2E4EB0EF11CD701ED91FC91DF01AA0FBB
:100D2000BB1FAA0FBB1FA80FB91F11967C936E9310
:100D300013965C934E931297CF01019660E170E099
:100D40000E946B14F701918380832F5F3F4FD8017E
:100D50002D933C9381E001C080E0CC2309F078948E
:100D6000CF911F910F91FF90EF900895AB0180916B
:100D7000D3039091D4039C012C5F3F4F2617370774
:100D800024F004976817790754F45093D4034093E0
:100D9000D30364E070E087E494E00C947606089551
:100DA000AB018091D7039091D8039C012C5F3F4FFA
:100DB0002617370724F004976817790754F45093DF
:100DC000D8034093D70365E070E087E494E00C9487
:100DD000760608950F931F93CF93DF93EB010E9444
:100DE000040A0091DD031091DE03012E000C220B9A
:100DF000330BDC01CB01801B910BA20BB30BC39710
:100E0000A105B10570F18091DB039091DC03813085
:100E1000910541F08230910571F0892BE1F481E078
:100E200090E004C02197B9F482E090E09093DC0355
:100E30008093DB0310C0219771F081E090E09093E4
:100E4000DC038093DB0340E050E061E070E087E486
:100E500094E00E9476060E94040A7093DE03609379
:100E6000DD03DF91CF911F910F9108950F931F9391
:100E7000CF93DF93EB010E94040A0091E3031091EA
:100E8000E403012E000C220B330BDC01CB01801B91
:100E9000910BA20BB30BC397A105B10570F1809123
:100EA000E1039091E2038130910541F08230910598
:100EB00071F0892BE1F481E090E004C02197B9F44E
:100EC00082E090E09093E2038093E10310C02197C9
:100ED00071F081E090E09093E2038093E10340E0C1
:100EE00050E062E070E087E494E00E9476060E94A1
:100EF000040A7093E4036093E303DF91CF911F91A1
:100F00000F9108950F931F93CF93DF93EB010E94EE
:100F1000040A0091E9031091EA03012E000C220B50
:100F2000330BDC01CB01801B910BA20BB30BC397DE
:100F3000A105B10570F18091E7039091E80381303C
:100F4000910541F08230910571F0892BE1F481E047
:100F500090E004C02197B9F482E090E09093E80318
:100F60008093E70310C0219771F081E090E09093A7
:100F7000E8038093E70340E050E060E070E087E43E
:100F800094E00E9476060E94040A7093EA0360933C
:100F9000E903DF91CF911F910F910895CF93DF93D4
:100FA0002091ED033091EE032130310531F02230F4
:100FB0003105A1F1232BD1F533C00597B9F565367D
:100FC00071054CF1CB018456910968E770E00E94ED
:100FD0006B148AE0869FE001879FD00D1124C457CF
:100FE000DF4F8091EF039091F003C817D907F1F01C
:100FF0008BEE91E00E94F60BCE010E94080CAE0130
:1010000063E070E087E494E00E947606D093F003FA
:10101000C093EF030BC082E090E004C0059731F469
:1010200081E090E09093EE038093ED03DF91CF9108
:101030000895EF92FF920F931F93CF93DF937C015C
:101040008B01809102038111FCCF902F013208F0B7
:1010500090E221E020930203209301038FEF80931D
:1010600000031092FF02890F8093FE022093DD029D
:101070002091DD0220622093DD028091DC0281302C
:1010800061F41092DC028091DD028093BB008091BC
:10109000BC0083FDF8CF85EC01C085EE8093BC00D9
:1010A000809102038130E1F38091FF02891710F4EF
:1010B0009091FF02AEEDB2E02EE532E0F9018E2F05
:1010C000821B891718F48D918193F9CF1092C60273
:1010D0009093C502E701CE018E199F0980179107F1
:1010E00034F483EC93E00E949A018993F4CFDF916A
:1010F000CF911F910F91FF90EF900895833081F071
:1011000028F4813099F08230A1F008958730A9F059
:101110008830B9F08430D1F4809180008F7D03C095
:10112000809180008F7780938000089584B58F77B9
:1011300002C084B58F7D84BD08958091B0008F7703
:1011400003C08091B0008F7D8093B0000895CF934D
:10115000DF93282F30E0F901EE58FF4F8491F90119
:10116000E255FF4FD491F901E656FF4FC491CC23CD
:1011700091F081110E947E08EC2FF0E0EE0FFF1F2E
:10118000E057FF4FA591B491EC91ED2381E090E001
:1011900021F480E002C080E090E0DF91CF910895DB
:1011A0008E3008F08E508770806480937C00809130
:1011B0007A00806480937A0080917A0086FDFCCF6B
:1011C000809178002091790090E0922B08953FB7AC
:1011D000F8948091CE029091CF02A091D002B0916C
:1011E000D10226B5A89B05C02F3F19F00196A11D7D
:1011F000B11D3FBFBA2FA92F982F8827820F911DAD
:10120000A11DB11DBC01CD0142E0660F771F881FF3
:10121000991F4A95D1F70895CF92DF92EF92FF92EE
:101220000F931F93CF93DF936C017A018B01C0E082
:10123000D0E0CE15DF0589F0D8016D918D01D60182
:10124000ED91FC910190F081E02DC6010995892B6B
:1012500011F47E0102C02196ECCFC701DF91CF913E
:101260001F910F91FF90EF90DF90CF9008950F9313
:101270001F93CF93DF93EC0188819981009729F028
:101280002A813B812617370788F48B016F5F7F4FD8
:101290000E94B915009761F0998388831B830A83A4
:1012A0002C813D81232B11F4FC01108281E001C0CF
:1012B00080E0DF91CF911F910F9108951F93CF93FD
:1012C000DF93282F30E0F901EE58FF4F8491F901A8
:1012D000E255FF4FD491F901E656FF4FC491CC235C
:1012E000C9F0162F81110E947E08EC2FF0E0EE0F5E
:1012F000FF1FEA57FF4FA591B4918FB7F8941111D2
:1013000005C09C91ED2FE095E92302C0EC91ED2BF7
:10131000EC938FBFDF91CF911F910895CF93DF930F
:1013200090E0FC01E255FF4F2491FC01E656FF4F8F
:101330008491882361F190E0880F991FFC01E8599E
:10134000FF4FC591D491FC01EA57FF4FA591B4918D
:10135000611109C09FB7F894888120958223888302
:10136000EC912E230BC0623061F49FB7F894388162
:10137000822F809583238883EC912E2B2C939FBF03
:1013800006C08FB7F894E8812E2B28838FBFDF919A
:10139000CF9108958F929F92AF92BF92CF92DF929A
:1013A000EF92FF926B017C010E94E7084B015C0108
:1013B000C114D104E104F104F1F00E94E708DC015A
:1013C000CB0188199909AA09BB09883E9340A10558
:1013D000B10570F321E0C21AD108E108F10888EEE6
:1013E000880E83E0981EA11CB11CC114D104E10435
:1013F000F10419F7DDCFFF90EF90DF90CF90BF9011
:10140000AF909F908F9008952FB7F8946091CA0283
:101410007091CB028091CC029091CD022FBF0895A4
:101420001F920F920FB60F9211242F933F938F9319
:101430009F93AF93BF938091CA029091CB02A091EA
:10144000CC02B091CD023091C90223E0230F2D3799
:1014500020F40196A11DB11D05C026E8230F0296B8
:10146000A11DB11D2093C9028093CA029093CB02A3
:10147000A093CC02B093CD028091CE029091CF0286
:10148000A091D002B091D1020196A11DB11D80930F
:10149000CE029093CF02A093D002B093D102BF911D
:1014A000AF919F918F913F912F910F900FBE0F9011
:1014B0001F901895EF92FF920F931F93CF93DF9396
:1014C000C82F7B018091FF0390910004DC01ED9116
:1014D000FC910190F081E02D6EE709958701D0E045
:1014E00021978091FF039091000498012E193F09E4
:1014F0002C173D075CF4F80161918F01DC01ED913F
:10150000FC910190F081E02D0995EBCFDC01ED918C
:10151000FC910190F081E02D6EE709956AE070E0A2
:1015200080E090E0DF91CF911F910F91FF90EF90BD
:101530000C94CA09EF92FF920F931F93CF93DF93FE
:101540007C018B018091FF0390910004DC01ED91FF
:10155000FC910190F081E02D6EE709958091FF03E9
:1015600090910004DC01ED91FC910190F081E02D5F
:101570006FEF09958091FF0390910004DC01ED91DC
:10158000FC910190F081E02D66E00995E701B4E05F
:10159000EB0EF11C8091FF03909100046991DC0136
:1015A000ED91FC910190F081E02D0995CE15DF05BC
:1015B00089F78091FF0390910004DC01ED91FC918B
:1015C0000190F081E02D6FEE09951016110664F47C
:1015D000B801110F880B990BDF91CF911F910F91DB
:1015E000FF90EF900C94CA09DF91CF911F910F915A
:1015F000FF90EF900895EF92FF920F931F93CF9378
:10160000DF93EB01813051F4BA01CE01DF91CF912C
:101610001F910F91FF90EF900C9419088A0181E0BF
:101620008093250380E18093320510922403109269
:1016300023037B01C7018C1B9D0B8017910744F48A
:10164000F70161917F0183EC93E00E94E601F2CF04
:1016500080912303813208F045C0909102039111DB
:10166000FCCF92E09093020391E0909301039FEFEF
:10167000909300031092FF028093FE02A3E0B3E078
:101680002EED32E0F9019E2F921B981718F49D91D0
:101690009193F9CF1092DD028091DD0280628093F8
:1016A000DD028091DC02813061F41092DC028091D5
:1016B000DD028093BB008091BC0083FDF8CF85ECF8
:1016C00001C085EE8093BC00809102038230E1F37B
:1016D000809100038F3F31F080910003803211F040
:1016E000809100031092240310922303109225038B
:1016F000DF91CF911F910F91FF90EF9008959C0182
:10170000FC01E05BFD41CF016AE070E00E945714EC
:10171000245639412C34344010F48CE004C0E038B5
:10172000FC4018F488E08093D5028091D202806456
:101730008093D202CB019695879596958795809355
:10174000D4028091D5028F7080616295660F660F1A
:10175000607C682B6093D50244E050E062ED72E05B
:1017600080E00E94FB0A62E370E080E090E00C946D
:10177000CA09CF93DF9300D000D0CDB7DEB7209158
:10178000FD033091FE032130310541F02230310557
:10179000C1F0232B21F50E947F0B21C019821A82F0
:1017A0001B821C8223E029836FEF70E00E94571494
:1017B0006B838C836AE070E0CE0101960E949A0AE6
:1017C0000EC020EA29836FEF70E00E9457146A83ED
:1017D0008B83BE016F5F7F4F84E00E945A0A0F9097
:1017E0000F900F900F90DF91CF910895009769F0BF
:1017F000FC0101900020E9F73197AF01481B590B1C
:10180000BC0186E293E00C940C0980E090E008951E
:101810008F929F92AF92BF92CF92DF92EF92FF9200
:101820000F931F93CF93DF93CDB7DEB7A1970FB67A
:10183000F894DEBF0FBECDBF6C01990FEE08FF0814
:10184000F7FE31C0E0912603F09127030190F0816B
:10185000E02D6DE286E293E009958C012227332783
:10186000A9012C193D094E095F0919A2CE018196E3
:101870007C019AE0892E912CA12CB12CCA01B901CE
:10188000A50194010E941113605DF70162937F012D
:10189000211531054105510589F7CF010E94F60B4D
:1018A000080F191F1EC0A701960119A28E010F5D16
:1018B0001F4F8AE0C82ED12CE12CF12CCA01B901AE
:1018C000A70196010E941113605DF80162938F01D8
:1018D000211531054105510589F7CF010E94F60B0D
:1018E0008C0189EF91E00E94F60B800F911FA19669
:1018F0000FB6F894DEBF0FBECDBFDF91CF911F9121
:101900000F91FF90EF90DF90CF90BF90AF909F909E
:101910008F9008959091D202882311F09F7B01C08F
:1019200090649093D20242E050E062ED72E080E079
:101930000E94FB0A62E370E080E090E00C94CA0928
:10194000CF93DF930E94F60BEC0189EF91E00E94A8
:10195000F60B8C0F9D1FDF91CF91089561157105D6
:1019600009F140918D0450918E0440325105D1F01F
:10197000E5E0E49F9001E59F300D11242F5F3B4F80
:10198000F901E257FF4F7183608332969183808320
:10199000329681E080834F5F5F4F50938E04409377
:1019A0008D04089580E008950F931F930E94040A08
:1019B00060932E0370932F03809330039093310331
:1019C000E0912603F09127030680F781E02D86E25F
:1019D00093E0099597FF1FC00E94040A00912E030F
:1019E00010912F032091300330913103DC01CB01A2
:1019F000801B910BA20BB30B00912A0310912B03B8
:101A000020912C0330912D0380179107A207B30773
:101A1000B8F28FEF9FEF1F910F910895AF92BF9291
:101A2000CF92DF92EF92FF920F931F93CF93DF93AA
:101A30007C015B010FE814E0C12CD12CC0E0D0E0A8
:101A400080918D0490918E04C816D906DCF4D801DB
:101A5000ED91FC911197309779F012968D919C91B0
:101A600013978E159F0541F414968C91882321F0CD
:101A70002196B501C7010995BFEFCB1ADB0A0B5FB1
:101A80001F4FDECF209779F4E0912F05F0913005BC
:101A9000309749F080913105882329F0B501C701BD
:101AA0000995C1E0D0E0CE01DF91CF911F910F9158
:101AB000FF90EF90DF90CF90BF90AF900895CF93BD
:101AC000DF93CDB7DEB72C970FB6F894DEBF0FBE0D
:101AD000CDBF789484B5826084BD84B5816084BDB7
:101AE00085B5826085BD85B5816085BD80916E00BC
:101AF000816080936E0010928100809181008260ED
:101B00008093810080918100816080938100809129
:101B100080008160809380008091B1008460809318
:101B2000B1008091B00081608093B00080917A0014
:101B3000846080937A0080917A00826080937A003A
:101B400080917A00816080937A0080917A00806829
:101B500080937A001092C100E0913603F091370330
:101B600082E08083E0913203F09133031082E091B0
:101B70003403F091350380E1808310923E03E091BD
:101B80003A03F0913B0386E08083E0913803F091C3
:101B90003903808180618083E0913803F0913903BB
:101BA000808188608083E0913803F09139038081DF
:101BB00080688083E0913803F091390380818F7DC4
:101BC00080831A8219821C821B821E821D8260E021
:101BD00070E08E010F5F1F4FC8010E9437092981F5
:101BE0003A8181110DC02115310519F0C9010E94FA
:101BF00021151A8219821E821D821C821B8222C01C
:101C00001E821D826BEF71E0C9010E9491161AC0FD
:101C10008B871C86ED80FE808FEFE81AF80AB701EB
:101C2000C8010E943709882369F029813A818D8192
:101C30009E81BE01655F7F4F820F931F0E949116A8
:101C4000FE82ED820E94D40C97FFE2CF89819A81B7
:101C50000E9421158091FD039091FE03009779F079
:101C6000019709F08AC089E089831A821B8282E089
:101C70008C8368EC70E0C8010E949A0A7EC01092C2
:101C8000C6021092C50210922403109223031092F0
:101C9000020381E0809301031092DC0261E082E1A3
:101CA0000E945E0961E083E10E945E098091B900B3
:101CB0008E7F8093B9008091B9008D7F8093B900A9
:101CC00088E48093B80085E48093BC008AE0F80142
:101CD00011928A95E9F71092D20282E08093D302A2
:101CE00042E050E062ED72E080E00E94FB0A62E3B5
:101CF00070E080E090E00E94CA096AE070E0C801EC
:101D00000E94190862E370E080E090E00E94CA0936
:101D1000898590E0982F88272A85822B9093C80286
:101D20008093C702E0E0F1E0A2EDB2E081918D93F3
:101D300081E0E830F807D1F742E050E060E071E080
:101D400080E00E94FB0A68E572E080E090E00E947B
:101D5000CA0948E450E060E071E080E00E94FB0ABC
:101D600062E370E080E090E00E94CA0981E00E9496
:101D70008A0C82E992E20E947F0B60E082E00E947E
:101D80008E0960E084E00E948E0960E083E00E949A
:101D90008E0985E793E09093FC038093FB038DEB22
:101DA00092E09093F6038093F5038EEC97E0909386
:101DB000F2038093F10382E897E09093EC03809321
:101DC000EB0386E397E09093E6038093E5038AEEC6
:101DD00096E09093E0038093DF0380ED96E090938C
:101DE000DA038093D90386EB96E09093D603809331
:101DF000D50365E773E080E090E00E94AE0C60914F
:101E0000FB037091FC0381E090E00E94AE0C6091B6
:101E1000FB037091FC0382E090E00E94AE0C6091A5
:101E2000FB037091FC0383E090E00E94AE0C609194
:101E3000F5037091F60384E090E00E94AE0C60918F
:101E4000F1037091F20385E090E00E94AE0C609186
:101E5000F1037091F20386E090E00E94AE0C609175
:101E6000EB037091EC0387E090E00E94AE0C609170
:101E7000E5037091E60388E090E00E94AE0C60916B
:101E8000DF037091E00389E090E00E94AE0C609166
:101E9000D9037091DA038AE090E00E94AE0C609161
:101EA000D5037091D6038BE090E00E94AE0C89EFD1
:101EB00091E00E94F60B8CEF91E00E94A00CE09163
:101EC000FB03F091FC0360E070E080E090E0099596
:101ED000E091F503F091F60360E070E080E090E0BF
:101EE0000995E091F103F091F20360E070E080E089
:101EF00090E00995E091EB03F091EC0360E070E075
:101F000080E090E00995E091E503F091E60360E060
:101F100070E080E090E00995E091DF03F091E0034C
:101F200060E070E080E090E00995E091D903F091E5
:101F3000DA0360E070E080E090E00995E091D5037D
:101F4000F091D60360E070E080E090E0099508EC45
:101F500010E020E1E22EF12C80914504909146049E
:101F6000892B09F460C04FB7F89420914104309157
:101F70004204F901EE0FFF1FEE0FFF1FEF5FFB4F53
:101F8000C080D180A280B38011830083C9010196F3
:101F9000B7010E946B149093420480934104809196
:101FA000450490914604019790934604809345041C
:101FB00047FD05C0B501C6010E940E0DCDCF789436
:101FC000F9CFBFB6F89440918704509188049A01E4
:101FD000220F331F220F331F2F5F3B4FD901AA5B04
:101FE000BF4FCD90DC901197F901E85BFF4F208146
:101FF00031810D931C93CA010196B7010E946B14A5
:10200000909388048093870480918B0490918C0432
:10201000019790938C0480938B04B7FC0BC0B9019B
:10202000C6010E940E0D80918B0490918C04892B27
:1020300019F0C7CF7894F3CF82E00E94A7082C0153
:1020400083E00E94A7083C0184E00E94A7084C019D
:102050008EE00E94D0085C018FE00E94D0086C01E5
:10206000A20167E070E087E494E00E947606A30195
:1020700068E070E087E494E00E947606A40169E0DD
:1020800070E087E494E00E947606A5016AE070E0C3
:1020900087E494E00E947606A6016BE070E087E496
:1020A00094E00E9476060E944E0156CFCF93DF93B4
:1020B000109229031092280388EE93E0A0E0B0E08C
:1020C00080932A0390932B03A0932C03B0932D03AA
:1020D00022E531E0309327032093260325EC30E0FE
:1020E000309333032093320324EC30E030933503F4
:1020F0002093340320EC30E03093370320933603F1
:1021000021EC30E0309339032093380322EC30E0A7
:1021100030933B0320933A0326EC30E030933D03A9
:1021200020933C0310923F0310924003109241030E
:10213000109242031092C6031092C5038093C70306
:102140009093C803A093C903B093CA0382E691E0B9
:102150009093C4038093C3031092420410924104ED
:1021600010924404109243041092460410924504C5
:10217000E1E0F4E088EC90E09183808313821282A6
:10218000349624E0E134F207B9F7109288041092F3
:10219000870410928A041092890410928C04109281
:1021A0008B04E7E4F4E088EC90E091838083138271
:1021B0001282349624E0E738F207B9F710928E04C1
:1021C00010928D041092300510922F0581E090E05E
:1021D0009093FE038093FD038FE190E00E948C14A6
:1021E000EC011B821A8288EE93E0A0E0B0E08C83C1
:1021F0009D83AE83BF8382E791E0998388831F8AA2
:102200001E8A198E188E1B8E1A8E1D8E1C8E6E8D38
:102210006E7F6D7F6E8F6695617081E0682787E0C5
:102220000E945E0961E087E00E948E09E5EBF0E024
:10223000E491E88BE1EAF0E0E491F0E0EE0FFF1FBB
:10224000EA57FF4F859194919A8B898B60E086E0E5
:102250000E948E098E8D81FD04C061E086E00E949F
:102260005E0986E08C87E4EBF0E0E491ED87E0EA3C
:10227000F0E0E491F0E0EE0FFF1FE057FF4F859193
:1022800094919F878E87D0930004C093FF038DE9BC
:1022900091E09D8F8C8F2DEB30E03F8B2E8B2BE9C7
:1022A00031E0398F288F2CE231E03B8F2A8F20914B
:1022B00068002460209368002DE630E03C8B2B8B77
:1022C00020E42D8B0197F1F78A8D9B8D892B09F1E5
:1022D000E091D103F091D203EC17FD07D1F03097D4
:1022E00039F0A389B4899C918589809589238C9341
:1022F0008E8D8E7F8E8F1092D0031092CF03D0934D
:10230000D203C093D103EB89FC8990818D89892BFD
:1023100080831092F8031092F7031092FA03109240
:10232000F9031092F4031092F3031092EE0310924B
:10233000ED031092F0031092EF031092E803109255
:10234000E7031092EA031092E9031092E20310925D
:10235000E1031092E4031092E3031092DC03109265
:10236000DB031092DE031092DD031092D80310926B
:10237000D7031092D4031092D303DF91CF91089525
:10238000E89409C097FB3EF490958095709561950F
:102390007F4F8F4F9F4F9923A9F0F92F96E9BB27C5
:1023A0009395F695879577956795B795F111F8CF41
:1023B000FAF4BB0F11F460FF1BC06F5F7F4F8F4FAC
:1023C0009F4F16C0882311F096E911C0772321F0A2
:1023D0009EE8872F762F05C0662371F096E8862F3A
:1023E00070E060E02AF09A95660F771F881FDAF791
:1023F000880F9695879597F908950E9410120C946E
:1024000081120E94731238F00E947A1220F09523F4
:1024100011F00C946A120C94701211240C94B512E1
:102420000E94921270F3959FC1F3950F50E0551FD3
:10243000629FF001729FBB27F00DB11D639FAA2719
:10244000F00DB11DAA1F649F6627B00DA11D661F68
:10245000829F2227B00DA11D621F739FB00DA11D89
:10246000621F839FA00D611D221F749F3327A00D43
:10247000611D231F849F600D211D822F762F6A2FDF
:1024800011249F5750409AF0F1F088234AF0EE0F44
:10249000FF1FBB1F661F771F881F91505040A9F771
:1024A0009E3F510580F00C946A120C94B5125F3F68
:1024B000E4F3983ED4F3869577956795B795F795AD
:1024C000E7959F5FC1F7FE2B880F911D9695879525
:1024D00097F9089597F99F6780E870E060E00895A4
:1024E0009FEF80EC089500240A941616170618062C
:1024F0000906089500240A94121613061406050608
:102500000895092E0394000C11F4882352F0BB0F98
:1025100040F4BF2B11F460FF04C06F5F7F4F8F4FFB
:102520009F4F089557FD9058440F551F59F05F3F36
:1025300071F04795880F97FB991F61F09F3F79F0E5
:1025400087950895121613061406551FF2CF469567
:10255000F1DF08C0161617061806991FF1CF8695E9
:102560007105610508940895E894BB2766277727CD
:10257000CB0197F90895052E97FB1EF400940E9455
:10258000D21257FD07D00E94111307FC03D04EF45E
:102590000C94D21250954095309521953F4F4F4F56
:1025A0005F4F089590958095709561957F4F8F4FFF
:1025B0009F4F08952F923F924F925F926F927F921A
:1025C0008F929F92AF92BF92CF92DF92EF92FF9243
:1025D0000F931F93CF93DF93CDB7DEB7CA1BDB0BEF
:1025E0000FB6F894DEBF0FBECDBF09942A88398894
:1025F00048885F846E847D848C849B84AA84B9849B
:10260000C884DF80EE80FD800C811B81AA81B981A6
:10261000CE0FD11D0FB6F894DEBF0FBECDBFED01BA
:102620000895A1E21A2EAA1BBB1BFD010DC0AA1F13
:10263000BB1FEE1FFF1FA217B307E407F50720F02B
:10264000A21BB30BE40BF50B661F771F881F991FA6
:102650001A9469F760957095809590959B01AC01EF
:10266000BD01CF010895A29FB001B39FC001A39FF8
:10267000700D811D1124911DB29F700D811D1124BB
:10268000911D08955058BB27AA270E945A130C94F5
:1026900081120E94731238F00E947A1220F039F4ED
:1026A0009F3F19F426F40C9470120EF4E095E7FBAA
:1026B0000C946A12E92F0E94921258F3BA1762071B
:1026C00073078407950720F079F4A6F50C94B412EB
:1026D0000EF4E0950B2EBA2FA02D0B01B90190013D
:1026E0000C01CA01A0011124FF27591B99F0593F81
:1026F00050F4503E68F11A16F040A22F232F342FC9
:102700004427585FF3CF469537952795A795F04016
:102710005395C9F77EF41F16BA0B620B730B840B2B
:10272000BAF09150A1F0FF0FBB1F661F771F881FE3
:10273000C2F70EC0BA0F621F731F841F48F487953B
:1027400077956795B795F7959E3F08F0B0CF93952D
:10275000880F08F09927EE0F9795879508950E94A6
:10276000C3130C9481120E947A1258F00E947312C3
:1027700040F029F45F3F29F00C946A1251110C9437
:10278000B5120C9470120E94921268F39923B1F35F
:10279000552391F3951B550BBB27AA276217730787
:1027A000840738F09F5F5F4F220F331F441FAA1F1B
:1027B000A9F335D00E2E3AF0E0E832D091505040D7
:1027C000E695001CCAF72BD0FE2F29D0660F771F85
:1027D000881FBB1F261737074807AB07B0E809F06B
:1027E000BB0B802DBF01FF2793585F4F3AF09E3FF0
:1027F000510578F00C946A120C94B5125F3FE4F323
:10280000983ED4F3869577956795B795F7959F5F32
:10281000C9F7880F911D9695879597F90895E1E07E
:10282000660F771F881FBB1F621773078407BA07DD
:1028300020F0621B730B840BBA0BEE1F88F7E09538
:1028400008950E9428146894B1110C94B51208954B
:102850000E949A1288F09F5798F0B92F9927B75184
:10286000B0F0E1F0660F771F881F991F1AF0BA9534
:10287000C9F714C0B13091F00E94B412B1E00895CC
:102880000C94B412672F782F8827B85F39F0B93FBE
:10289000CCF3869577956795B395D9F73EF49095E7
:1028A0008095709561957F4F8F4F9F4F0895AA1B1C
:1028B000BB1B51E107C0AA1FBB1FA617B70710F02B
:1028C000A61BB70B881F991F5A95A9F7809590955D
:1028D000BC01CD01089597FB072E16F4009407D094
:1028E00077FD09D00E94571407FC05D03EF490955F
:1028F00081959F4F0895709561957F4F08950E942F
:102900003313B7FF0895821B930B0895EE0FFF1F3B
:102910000590F491E02D0994CF93DF9382309105D7
:1029200010F482E090E0E0913505F091360520E06A
:1029300030E0C0E0D0E0309711F14081518148177C
:102940005907C0F04817590761F482819381209795
:1029500019F09B838A832BC09093360580933505AD
:1029600026C02115310519F04217530718F49A01B2
:10297000BE01DF01EF010280F381E02DDCCF2115E4
:10298000310509F1281B390B2430310590F41296DA
:102990008D919C9113976115710521F0FB01938333
:1029A000828304C09093360580933505FD013296ED
:1029B00044C0FD01E20FF31F81939193225031092E
:1029C0002D933C933AC02091330530913405232B4D
:1029D00041F420914A0130914B013093340520930A
:1029E000330520914801309149012115310541F409
:1029F0002DB73EB740914C0150914D01241B350B32
:102A0000E0913305F0913405E217F307A0F42E1B93
:102A10003F0B2817390778F0AC014E5F5F4F241742
:102A2000350748F04E0F5F1F509334054093330530
:102A30008193919302C0E0E0F0E0CF01DF91CF916C
:102A400008950F931F93CF93DF93009709F48CC0E1
:102A5000FC013297138212820091350510913605E0
:102A60000115110581F420813181820F931F20917E
:102A70003305309134052817390779F5F09334057B
:102A8000E093330571C0D80140E050E0AE17BF07B6
:102A900050F412962D913C911397AD0121153105FB
:102AA00009F1D901F3CF9D01DA01338322836081DB
:102AB0007181860F971F8217930769F4EC012881B3
:102AC0003981260F371F2E5F3F4F318320838A8144
:102AD0009B8193838283452B29F4F0933605E09301
:102AE000350542C01396FC93EE931297ED01499180
:102AF00059919E01240F351FE217F30771F480816D
:102B00009181840F951F029611969C938E938281DA
:102B1000938113969C938E931297E0E0F0E0D80196
:102B200012968D919C911397009719F0F8018C01E2
:102B3000F6CF8D919C9198012E5F3F4F820F931F8E
:102B400020913305309134052817390769F43097FF
:102B500029F4109236051092350502C013821282B4
:102B60001093340500933305DF91CF911F910F919E
:102B70000895A0E0B0E0EFEBF5E10C94DE12EC017B
:102B8000009721F4CB010E948C14B8C0FC01E60F21
:102B9000F71F9C0122503109E217F30708F4ACC07B
:102BA000D9010D911C91119706171707B0F0053048
:102BB000110508F49FC0C80104978617970708F409
:102BC00099C002501109061B170B019311936D93C5
:102BD0007C93CF010E9421158DC05B01A01AB10A20
:102BE0004C01800E911EA0913505B091360540E054
:102BF00050E0E12CF12C109709F44AC0A815B90552
:102C0000D1F56D907C901197630182E0C80ED11CC4
:102C1000CA14DB0480F1A3014A195B096A0182E04E
:102C2000C80ED11C1296BC9012971396AC91B5E0C9
:102C3000CB16D10440F0B282A38351834083D901E3
:102C40006D937C930AC00E5F1F4FC301800F911FCD
:102C5000F90191838083EB2DFA2FE114F10431F017
:102C6000D7011396FC93EE93129744C0F093360568
:102C7000E09335053FC08D919C91119748175907F6
:102C800008F4AC017D0112960D90BC91A02DB3CF3C
:102C9000809133059091340588159905E1F4461724
:102CA0005707C8F48091480190914901009741F479
:102CB0008DB79EB740914C0150914D01841B950BEF
:102CC000E817F907C8F4F0933405E0933305F901E8
:102CD000718360830FC0CB010E948C147C0100972C
:102CE00059F0A801BE010E948816CE010E9421154C
:102CF000C70104C0CE0102C080E090E0CDB7DEB7CE
:102D0000EEE00C94FA1281E090E0F8940C9498169E
:102D1000FB01DC0102C001900D9241505040D8F7F8
:102D20000895FB01DC0101900D920020E1F7089568
:042D3000F894FFCF45
:102D3400C40100000400C3AD6000421200000000A2
:102D44000000000000000000000000000000001966
:102D54002A11B0422A11B831C0002A91940000A867
:102D6400C400F7CF1214806F460800860661000085
:102D7400109E23C804060E1C0000370580000000C6
:102D84000000E5000C09AE008C00A0002C0100003E
:102D94000000E601B601AE019A018B018A01000030
:102DA40000002E020C0982029A0215022D0273659C
:102DB4007474696E6720766F6C756D653A20007364
:102DC4007461727420706C6179696E6700736574E4
:102DD4002062706D207768696C6520706175736519
:102DE400643A200073746F7020706C6179696E6747
:102DF400006E65787420736F6E673A200070726598
:102E04007620736F6E673A20007365742062706D6C
:102E14003A2000747261636B3A20007365747469BC
:102E24006E672062706D3A20000D0A002D2D2D2D45
:102E34002D2D2D2D2D2D2D2D2D2D2D2D2D2D2D2DBE
:0E2E44002D2D2D2D2D2D2D2D2D2D2D2D000064
:00000001FF
